{
  "contractName": "Color",
  "abi": [
    {
      "inputs": [],
      "stateMutability": "nonpayable",
      "type": "constructor"
    },
    {
      "anonymous": false,
      "inputs": [
        {
          "indexed": true,
          "internalType": "address",
          "name": "owner",
          "type": "address"
        },
        {
          "indexed": true,
          "internalType": "address",
          "name": "approved",
          "type": "address"
        },
        {
          "indexed": true,
          "internalType": "uint256",
          "name": "tokenId",
          "type": "uint256"
        }
      ],
      "name": "Approval",
      "type": "event"
    },
    {
      "anonymous": false,
      "inputs": [
        {
          "indexed": true,
          "internalType": "address",
          "name": "owner",
          "type": "address"
        },
        {
          "indexed": true,
          "internalType": "address",
          "name": "operator",
          "type": "address"
        },
        {
          "indexed": false,
          "internalType": "bool",
          "name": "approved",
          "type": "bool"
        }
      ],
      "name": "ApprovalForAll",
      "type": "event"
    },
    {
      "anonymous": false,
      "inputs": [
        {
          "indexed": true,
          "internalType": "address",
          "name": "from",
          "type": "address"
        },
        {
          "indexed": true,
          "internalType": "address",
          "name": "to",
          "type": "address"
        },
        {
          "indexed": true,
          "internalType": "uint256",
          "name": "tokenId",
          "type": "uint256"
        }
      ],
      "name": "Transfer",
      "type": "event"
    },
    {
      "inputs": [
        {
          "internalType": "address",
          "name": "to",
          "type": "address"
        },
        {
          "internalType": "uint256",
          "name": "tokenId",
          "type": "uint256"
        }
      ],
      "name": "approve",
      "outputs": [],
      "stateMutability": "nonpayable",
      "type": "function"
    },
    {
      "inputs": [
        {
          "internalType": "address",
          "name": "owner",
          "type": "address"
        }
      ],
      "name": "balanceOf",
      "outputs": [
        {
          "internalType": "uint256",
          "name": "",
          "type": "uint256"
        }
      ],
      "stateMutability": "view",
      "type": "function",
      "constant": true
    },
    {
      "inputs": [
        {
          "internalType": "uint256",
          "name": "tokenId",
          "type": "uint256"
        }
      ],
      "name": "getApproved",
      "outputs": [
        {
          "internalType": "address",
          "name": "",
          "type": "address"
        }
      ],
      "stateMutability": "view",
      "type": "function",
      "constant": true
    },
    {
      "inputs": [
        {
          "internalType": "address",
          "name": "owner",
          "type": "address"
        },
        {
          "internalType": "address",
          "name": "operator",
          "type": "address"
        }
      ],
      "name": "isApprovedForAll",
      "outputs": [
        {
          "internalType": "bool",
          "name": "",
          "type": "bool"
        }
      ],
      "stateMutability": "view",
      "type": "function",
      "constant": true
    },
    {
      "inputs": [],
      "name": "name",
      "outputs": [
        {
          "internalType": "string",
          "name": "",
          "type": "string"
        }
      ],
      "stateMutability": "view",
      "type": "function",
      "constant": true
    },
    {
      "inputs": [
        {
          "internalType": "uint256",
          "name": "tokenId",
          "type": "uint256"
        }
      ],
      "name": "ownerOf",
      "outputs": [
        {
          "internalType": "address",
          "name": "",
          "type": "address"
        }
      ],
      "stateMutability": "view",
      "type": "function",
      "constant": true
    },
    {
      "inputs": [
        {
          "internalType": "address",
          "name": "from",
          "type": "address"
        },
        {
          "internalType": "address",
          "name": "to",
          "type": "address"
        },
        {
          "internalType": "uint256",
          "name": "tokenId",
          "type": "uint256"
        }
      ],
      "name": "safeTransferFrom",
      "outputs": [],
      "stateMutability": "nonpayable",
      "type": "function"
    },
    {
      "inputs": [
        {
          "internalType": "address",
          "name": "from",
          "type": "address"
        },
        {
          "internalType": "address",
          "name": "to",
          "type": "address"
        },
        {
          "internalType": "uint256",
          "name": "tokenId",
          "type": "uint256"
        },
        {
          "internalType": "bytes",
          "name": "_data",
          "type": "bytes"
        }
      ],
      "name": "safeTransferFrom",
      "outputs": [],
      "stateMutability": "nonpayable",
      "type": "function"
    },
    {
      "inputs": [
        {
          "internalType": "address",
          "name": "operator",
          "type": "address"
        },
        {
          "internalType": "bool",
          "name": "approved",
          "type": "bool"
        }
      ],
      "name": "setApprovalForAll",
      "outputs": [],
      "stateMutability": "nonpayable",
      "type": "function"
    },
    {
      "inputs": [
        {
          "internalType": "bytes4",
          "name": "interfaceId",
          "type": "bytes4"
        }
      ],
      "name": "supportsInterface",
      "outputs": [
        {
          "internalType": "bool",
          "name": "",
          "type": "bool"
        }
      ],
      "stateMutability": "view",
      "type": "function",
      "constant": true
    },
    {
      "inputs": [],
      "name": "symbol",
      "outputs": [
        {
          "internalType": "string",
          "name": "",
          "type": "string"
        }
      ],
      "stateMutability": "view",
      "type": "function",
      "constant": true
    },
    {
      "inputs": [],
      "name": "tokenCounter",
      "outputs": [
        {
          "internalType": "uint256",
          "name": "",
          "type": "uint256"
        }
      ],
      "stateMutability": "view",
      "type": "function",
      "constant": true
    },
    {
      "inputs": [
        {
          "internalType": "uint256",
          "name": "tokenId",
          "type": "uint256"
        }
      ],
      "name": "tokenURI",
      "outputs": [
        {
          "internalType": "string",
          "name": "",
          "type": "string"
        }
      ],
      "stateMutability": "view",
      "type": "function",
      "constant": true
    },
    {
      "inputs": [
        {
          "internalType": "address",
          "name": "from",
          "type": "address"
        },
        {
          "internalType": "address",
          "name": "to",
          "type": "address"
        },
        {
          "internalType": "uint256",
          "name": "tokenId",
          "type": "uint256"
        }
      ],
      "name": "transferFrom",
      "outputs": [],
      "stateMutability": "nonpayable",
      "type": "function"
    }
  ],
  "bytecode": "0x60806040523480156200001157600080fd5b506040518060400160405280600581526020017f436f6c6f720000000000000000000000000000000000000000000000000000008152506040518060400160405280600581526020017f434f4c4f52000000000000000000000000000000000000000000000000000000815250816000908051906020019062000096929190620000b8565b508060019080519060200190620000af929190620000b8565b505050620001cd565b828054620000c69062000168565b90600052602060002090601f016020900481019282620000ea576000855562000136565b82601f106200010557805160ff191683800117855562000136565b8280016001018555821562000136579182015b828111156200013557825182559160200191906001019062000118565b5b50905062000145919062000149565b5090565b5b80821115620001645760008160009055506001016200014a565b5090565b600060028204905060018216806200018157607f821691505b602082108114156200019857620001976200019e565b5b50919050565b7f4e487b7100000000000000000000000000000000000000000000000000000000600052602260045260246000fd5b61250680620001dd6000396000f3fe608060405234801561001057600080fd5b50600436106100ea5760003560e01c806370a082311161008c578063b88d4fde11610066578063b88d4fde1461025b578063c87b56dd14610277578063d082e381146102a7578063e985e9c5146102c5576100ea565b806370a08231146101f157806395d89b4114610221578063a22cb4651461023f576100ea565b8063095ea7b3116100c8578063095ea7b31461016d57806323b872dd1461018957806342842e0e146101a55780636352211e146101c1576100ea565b806301ffc9a7146100ef57806306fdde031461011f578063081812fc1461013d575b600080fd5b61010960048036038101906101049190611810565b6102f5565b6040516101169190611eee565b60405180910390f35b6101276103d7565b6040516101349190611f09565b60405180910390f35b61015760048036038101906101529190611862565b610469565b6040516101649190611e87565b60405180910390f35b610187600480360381019061018291906117d4565b6104ee565b005b6101a3600480360381019061019e91906116ce565b610606565b005b6101bf60048036038101906101ba91906116ce565b610666565b005b6101db60048036038101906101d69190611862565b610686565b6040516101e89190611e87565b60405180910390f35b61020b60048036038101906102069190611669565b610738565b60405161021891906120cb565b60405180910390f35b6102296107f0565b6040516102369190611f09565b60405180910390f35b61025960048036038101906102549190611798565b610882565b005b6102756004803603810190610270919061171d565b610a03565b005b610291600480360381019061028c9190611862565b610a65565b60405161029e9190611f09565b60405180910390f35b6102af610bb7565b6040516102bc91906120cb565b60405180910390f35b6102df60048036038101906102da9190611692565b610bbd565b6040516102ec9190611eee565b60405180910390f35b60007f80ac58cd000000000000000000000000000000000000000000000000000000007bffffffffffffffffffffffffffffffffffffffffffffffffffffffff1916827bffffffffffffffffffffffffffffffffffffffffffffffffffffffff191614806103c057507f5b5e139f000000000000000000000000000000000000000000000000000000007bffffffffffffffffffffffffffffffffffffffffffffffffffffffff1916827bffffffffffffffffffffffffffffffffffffffffffffffffffffffff1916145b806103d057506103cf82610c51565b5b9050919050565b6060600080546103e6906122fb565b80601f0160208091040260200160405190810160405280929190818152602001828054610412906122fb565b801561045f5780601f106104345761010080835404028352916020019161045f565b820191906000526020600020905b81548152906001019060200180831161044257829003601f168201915b5050505050905090565b600061047482610cbb565b6104b3576040517f08c379a00000000000000000000000000000000000000000000000000000000081526004016104aa9061202b565b60405180910390fd5b6004600083815260200190815260200160002060009054906101000a900473ffffffffffffffffffffffffffffffffffffffff169050919050565b60006104f982610686565b90508073ffffffffffffffffffffffffffffffffffffffff168373ffffffffffffffffffffffffffffffffffffffff16141561056a576040517f08c379a00000000000000000000000000000000000000000000000000000000081526004016105619061208b565b60405180910390fd5b8073ffffffffffffffffffffffffffffffffffffffff16610589610d27565b73ffffffffffffffffffffffffffffffffffffffff1614806105b857506105b7816105b2610d27565b610bbd565b5b6105f7576040517f08c379a00000000000000000000000000000000000000000000000000000000081526004016105ee90611fab565b60405180910390fd5b6106018383610d2f565b505050565b610617610611610d27565b82610de8565b610656576040517f08c379a000000000000000000000000000000000000000000000000000000000815260040161064d906120ab565b60405180910390fd5b610661838383610ec6565b505050565b61068183838360405180602001604052806000815250610a03565b505050565b6000806002600084815260200190815260200160002060009054906101000a900473ffffffffffffffffffffffffffffffffffffffff169050600073ffffffffffffffffffffffffffffffffffffffff168173ffffffffffffffffffffffffffffffffffffffff16141561072f576040517f08c379a000000000000000000000000000000000000000000000000000000000815260040161072690611feb565b60405180910390fd5b80915050919050565b60008073ffffffffffffffffffffffffffffffffffffffff168273ffffffffffffffffffffffffffffffffffffffff1614156107a9576040517f08c379a00000000000000000000000000000000000000000000000000000000081526004016107a090611fcb565b60405180910390fd5b600360008373ffffffffffffffffffffffffffffffffffffffff1673ffffffffffffffffffffffffffffffffffffffff168152602001908152602001600020549050919050565b6060600180546107ff906122fb565b80601f016020809104026020016040519081016040528092919081815260200182805461082b906122fb565b80156108785780601f1061084d57610100808354040283529160200191610878565b820191906000526020600020905b81548152906001019060200180831161085b57829003601f168201915b5050505050905090565b61088a610d27565b73ffffffffffffffffffffffffffffffffffffffff168273ffffffffffffffffffffffffffffffffffffffff1614156108f8576040517f08c379a00000000000000000000000000000000000000000000000000000000081526004016108ef90611f6b565b60405180910390fd5b8060056000610905610d27565b73ffffffffffffffffffffffffffffffffffffffff1673ffffffffffffffffffffffffffffffffffffffff16815260200190815260200160002060008473ffffffffffffffffffffffffffffffffffffffff1673ffffffffffffffffffffffffffffffffffffffff16815260200190815260200160002060006101000a81548160ff0219169083151502179055508173ffffffffffffffffffffffffffffffffffffffff166109b2610d27565b73ffffffffffffffffffffffffffffffffffffffff167f17307eab39ab6107e8899845ad3d59bd9653f200f220920489ca2b5937696c31836040516109f79190611eee565b60405180910390a35050565b610a14610a0e610d27565b83610de8565b610a53576040517f08c379a0000000000000000000000000000000000000000000000000000000008152600401610a4a906120ab565b60405180910390fd5b610a5f84848484611122565b50505050565b6060610a7082610cbb565b610aaf576040517f08c379a0000000000000000000000000000000000000000000000000000000008152600401610aa69061200b565b60405180910390fd5b6000600660008481526020019081526020016000208054610acf906122fb565b80601f0160208091040260200160405190810160405280929190818152602001828054610afb906122fb565b8015610b485780601f10610b1d57610100808354040283529160200191610b48565b820191906000526020600020905b815481529060010190602001808311610b2b57829003601f168201915b505050505090506000610b5961117e565b9050600081511415610b6f578192505050610bb2565b600082511115610ba4578082604051602001610b8c929190611e63565b60405160208183030381529060405292505050610bb2565b610bad84611195565b925050505b919050565b60075481565b6000600560008473ffffffffffffffffffffffffffffffffffffffff1673ffffffffffffffffffffffffffffffffffffffff16815260200190815260200160002060008373ffffffffffffffffffffffffffffffffffffffff1673ffffffffffffffffffffffffffffffffffffffff16815260200190815260200160002060009054906101000a900460ff16905092915050565b60007f01ffc9a7000000000000000000000000000000000000000000000000000000007bffffffffffffffffffffffffffffffffffffffffffffffffffffffff1916827bffffffffffffffffffffffffffffffffffffffffffffffffffffffff1916149050919050565b60008073ffffffffffffffffffffffffffffffffffffffff166002600084815260200190815260200160002060009054906101000a900473ffffffffffffffffffffffffffffffffffffffff1673ffffffffffffffffffffffffffffffffffffffff1614159050919050565b600033905090565b816004600083815260200190815260200160002060006101000a81548173ffffffffffffffffffffffffffffffffffffffff021916908373ffffffffffffffffffffffffffffffffffffffff160217905550808273ffffffffffffffffffffffffffffffffffffffff16610da283610686565b73ffffffffffffffffffffffffffffffffffffffff167f8c5be1e5ebec7d5bd14f71427d1e84f3dd0314c0f7b2291e5b200ac8c7c3b92560405160405180910390a45050565b6000610df382610cbb565b610e32576040517f08c379a0000000000000000000000000000000000000000000000000000000008152600401610e2990611f8b565b60405180910390fd5b6000610e3d83610686565b90508073ffffffffffffffffffffffffffffffffffffffff168473ffffffffffffffffffffffffffffffffffffffff161480610eac57508373ffffffffffffffffffffffffffffffffffffffff16610e9484610469565b73ffffffffffffffffffffffffffffffffffffffff16145b80610ebd5750610ebc8185610bbd565b5b91505092915050565b8273ffffffffffffffffffffffffffffffffffffffff16610ee682610686565b73ffffffffffffffffffffffffffffffffffffffff1614610f3c576040517f08c379a0000000000000000000000000000000000000000000000000000000008152600401610f339061204b565b60405180910390fd5b600073ffffffffffffffffffffffffffffffffffffffff168273ffffffffffffffffffffffffffffffffffffffff161415610fac576040517f08c379a0000000000000000000000000000000000000000000000000000000008152600401610fa390611f4b565b60405180910390fd5b610fb783838361123c565b610fc2600082610d2f565b6001600360008573ffffffffffffffffffffffffffffffffffffffff1673ffffffffffffffffffffffffffffffffffffffff16815260200190815260200160002060008282546110129190612211565b925050819055506001600360008473ffffffffffffffffffffffffffffffffffffffff1673ffffffffffffffffffffffffffffffffffffffff1681526020019081526020016000206000828254611069919061218a565b92505081905550816002600083815260200190815260200160002060006101000a81548173ffffffffffffffffffffffffffffffffffffffff021916908373ffffffffffffffffffffffffffffffffffffffff160217905550808273ffffffffffffffffffffffffffffffffffffffff168473ffffffffffffffffffffffffffffffffffffffff167fddf252ad1be2c89b69c2b068fc378daa952ba7f163c4a11628f55a4df523b3ef60405160405180910390a4505050565b61112d848484610ec6565b61113984848484611241565b611178576040517f08c379a000000000000000000000000000000000000000000000000000000000815260040161116f90611f2b565b60405180910390fd5b50505050565b606060405180602001604052806000815250905090565b60606111a082610cbb565b6111df576040517f08c379a00000000000000000000000000000000000000000000000000000000081526004016111d69061206b565b60405180910390fd5b60006111e961117e565b905060008151116112095760405180602001604052806000815250611234565b80611213846113d8565b604051602001611224929190611e63565b6040516020818303038152906040525b915050919050565b505050565b60006112628473ffffffffffffffffffffffffffffffffffffffff16611585565b156113cb578373ffffffffffffffffffffffffffffffffffffffff1663150b7a0261128b610d27565b8786866040518563ffffffff1660e01b81526004016112ad9493929190611ea2565b602060405180830381600087803b1580156112c757600080fd5b505af19250505080156112f857506040513d601f19601f820116820180604052508101906112f59190611839565b60015b61137b573d8060008114611328576040519150601f19603f3d011682016040523d82523d6000602084013e61132d565b606091505b50600081511415611373576040517f08c379a000000000000000000000000000000000000000000000000000000000815260040161136a90611f2b565b60405180910390fd5b805181602001fd5b63150b7a0260e01b7bffffffffffffffffffffffffffffffffffffffffffffffffffffffff1916817bffffffffffffffffffffffffffffffffffffffffffffffffffffffff1916149150506113d0565b600190505b949350505050565b60606000821415611420576040518060400160405280600181526020017f30000000000000000000000000000000000000000000000000000000000000008152509050611580565b600082905060005b6000821461145257808061143b9061232d565b915050600a8261144b91906121e0565b9150611428565b60008167ffffffffffffffff811115611494577f4e487b7100000000000000000000000000000000000000000000000000000000600052604160045260246000fd5b6040519080825280601f01601f1916602001820160405280156114c65781602001600182028036833780820191505090505b5090505b60008514611579576001826114df9190612211565b9150600a856114ee9190612376565b60306114fa919061218a565b60f81b818381518110611536577f4e487b7100000000000000000000000000000000000000000000000000000000600052603260045260246000fd5b60200101907effffffffffffffffffffffffffffffffffffffffffffffffffffffffffffff1916908160001a905350600a8561157291906121e0565b94506114ca565b8093505050505b919050565b600080823b905060008111915050919050565b60006115ab6115a684612117565b6120e6565b9050828152602081018484840111156115c357600080fd5b6115ce8482856122b9565b509392505050565b6000813590506115e581612474565b92915050565b6000813590506115fa8161248b565b92915050565b60008135905061160f816124a2565b92915050565b600081519050611624816124a2565b92915050565b600082601f83011261163b57600080fd5b813561164b848260208601611598565b91505092915050565b600081359050611663816124b9565b92915050565b60006020828403121561167b57600080fd5b6000611689848285016115d6565b91505092915050565b600080604083850312156116a557600080fd5b60006116b3858286016115d6565b92505060206116c4858286016115d6565b9150509250929050565b6000806000606084860312156116e357600080fd5b60006116f1868287016115d6565b9350506020611702868287016115d6565b925050604061171386828701611654565b9150509250925092565b6000806000806080858703121561173357600080fd5b6000611741878288016115d6565b9450506020611752878288016115d6565b935050604061176387828801611654565b925050606085013567ffffffffffffffff81111561178057600080fd5b61178c8782880161162a565b91505092959194509250565b600080604083850312156117ab57600080fd5b60006117b9858286016115d6565b92505060206117ca858286016115eb565b9150509250929050565b600080604083850312156117e757600080fd5b60006117f5858286016115d6565b925050602061180685828601611654565b9150509250929050565b60006020828403121561182257600080fd5b600061183084828501611600565b91505092915050565b60006020828403121561184b57600080fd5b600061185984828501611615565b91505092915050565b60006020828403121561187457600080fd5b600061188284828501611654565b91505092915050565b61189481612245565b82525050565b6118a381612257565b82525050565b60006118b482612147565b6118be818561215d565b93506118ce8185602086016122c8565b6118d781612463565b840191505092915050565b60006118ed82612152565b6118f7818561216e565b93506119078185602086016122c8565b61191081612463565b840191505092915050565b600061192682612152565b611930818561217f565b93506119408185602086016122c8565b80840191505092915050565b600061195960328361216e565b91507f4552433732313a207472616e7366657220746f206e6f6e20455243373231526560008301527f63656976657220696d706c656d656e74657200000000000000000000000000006020830152604082019050919050565b60006119bf60248361216e565b91507f4552433732313a207472616e7366657220746f20746865207a65726f2061646460008301527f72657373000000000000000000000000000000000000000000000000000000006020830152604082019050919050565b6000611a2560198361216e565b91507f4552433732313a20617070726f766520746f2063616c6c6572000000000000006000830152602082019050919050565b6000611a65602c8361216e565b91507f4552433732313a206f70657261746f7220717565727920666f72206e6f6e657860008301527f697374656e7420746f6b656e00000000000000000000000000000000000000006020830152604082019050919050565b6000611acb60388361216e565b91507f4552433732313a20617070726f76652063616c6c6572206973206e6f74206f7760008301527f6e6572206e6f7220617070726f76656420666f7220616c6c00000000000000006020830152604082019050919050565b6000611b31602a8361216e565b91507f4552433732313a2062616c616e636520717565727920666f7220746865207a6560008301527f726f2061646472657373000000000000000000000000000000000000000000006020830152604082019050919050565b6000611b9760298361216e565b91507f4552433732313a206f776e657220717565727920666f72206e6f6e657869737460008301527f656e7420746f6b656e00000000000000000000000000000000000000000000006020830152604082019050919050565b6000611bfd60318361216e565b91507f45524337323155524953746f726167653a2055524920717565727920666f722060008301527f6e6f6e6578697374656e7420746f6b656e0000000000000000000000000000006020830152604082019050919050565b6000611c63602c8361216e565b91507f4552433732313a20617070726f76656420717565727920666f72206e6f6e657860008301527f697374656e7420746f6b656e00000000000000000000000000000000000000006020830152604082019050919050565b6000611cc960298361216e565b91507f4552433732313a207472616e73666572206f6620746f6b656e2074686174206960008301527f73206e6f74206f776e00000000000000000000000000000000000000000000006020830152604082019050919050565b6000611d2f602f8361216e565b91507f4552433732314d657461646174613a2055524920717565727920666f72206e6f60008301527f6e6578697374656e7420746f6b656e00000000000000000000000000000000006020830152604082019050919050565b6000611d9560218361216e565b91507f4552433732313a20617070726f76616c20746f2063757272656e74206f776e6560008301527f72000000000000000000000000000000000000000000000000000000000000006020830152604082019050919050565b6000611dfb60318361216e565b91507f4552433732313a207472616e736665722063616c6c6572206973206e6f74206f60008301527f776e6572206e6f7220617070726f7665640000000000000000000000000000006020830152604082019050919050565b611e5d816122af565b82525050565b6000611e6f828561191b565b9150611e7b828461191b565b91508190509392505050565b6000602082019050611e9c600083018461188b565b92915050565b6000608082019050611eb7600083018761188b565b611ec4602083018661188b565b611ed16040830185611e54565b8181036060830152611ee381846118a9565b905095945050505050565b6000602082019050611f03600083018461189a565b92915050565b60006020820190508181036000830152611f2381846118e2565b905092915050565b60006020820190508181036000830152611f448161194c565b9050919050565b60006020820190508181036000830152611f64816119b2565b9050919050565b60006020820190508181036000830152611f8481611a18565b9050919050565b60006020820190508181036000830152611fa481611a58565b9050919050565b60006020820190508181036000830152611fc481611abe565b9050919050565b60006020820190508181036000830152611fe481611b24565b9050919050565b6000602082019050818103600083015261200481611b8a565b9050919050565b6000602082019050818103600083015261202481611bf0565b9050919050565b6000602082019050818103600083015261204481611c56565b9050919050565b6000602082019050818103600083015261206481611cbc565b9050919050565b6000602082019050818103600083015261208481611d22565b9050919050565b600060208201905081810360008301526120a481611d88565b9050919050565b600060208201905081810360008301526120c481611dee565b9050919050565b60006020820190506120e06000830184611e54565b92915050565b6000604051905081810181811067ffffffffffffffff8211171561210d5761210c612434565b5b8060405250919050565b600067ffffffffffffffff82111561213257612131612434565b5b601f19601f8301169050602081019050919050565b600081519050919050565b600081519050919050565b600082825260208201905092915050565b600082825260208201905092915050565b600081905092915050565b6000612195826122af565b91506121a0836122af565b9250827fffffffffffffffffffffffffffffffffffffffffffffffffffffffffffffffff038211156121d5576121d46123a7565b5b828201905092915050565b60006121eb826122af565b91506121f6836122af565b925082612206576122056123d6565b5b828204905092915050565b600061221c826122af565b9150612227836122af565b92508282101561223a576122396123a7565b5b828203905092915050565b60006122508261228f565b9050919050565b60008115159050919050565b60007fffffffff0000000000000000000000000000000000000000000000000000000082169050919050565b600073ffffffffffffffffffffffffffffffffffffffff82169050919050565b6000819050919050565b82818337600083830152505050565b60005b838110156122e65780820151818401526020810190506122cb565b838111156122f5576000848401525b50505050565b6000600282049050600182168061231357607f821691505b6020821081141561232757612326612405565b5b50919050565b6000612338826122af565b91507fffffffffffffffffffffffffffffffffffffffffffffffffffffffffffffffff82141561236b5761236a6123a7565b5b600182019050919050565b6000612381826122af565b915061238c836122af565b92508261239c5761239b6123d6565b5b828206905092915050565b7f4e487b7100000000000000000000000000000000000000000000000000000000600052601160045260246000fd5b7f4e487b7100000000000000000000000000000000000000000000000000000000600052601260045260246000fd5b7f4e487b7100000000000000000000000000000000000000000000000000000000600052602260045260246000fd5b7f4e487b7100000000000000000000000000000000000000000000000000000000600052604160045260246000fd5b6000601f19601f8301169050919050565b61247d81612245565b811461248857600080fd5b50565b61249481612257565b811461249f57600080fd5b50565b6124ab81612263565b81146124b657600080fd5b50565b6124c2816122af565b81146124cd57600080fd5b5056fea264697066735822122091ff2409ef5373284b123882dc102d078ccd890b7010db2765e7f6f29ab8fa8f64736f6c63430008000033",
  "immutableReferences": {},
  "source": "// SPDX-License-Identifier: MIT\r\npragma solidity ^0.8.0;\r\n\r\nimport \"@openzeppelin/contracts/token/ERC721/extensions/ERC721URIStorage.sol\";\r\n\r\ncontract Color is ERC721URIStorage {\r\n\tuint256 public tokenCounter;\r\n\r\n\tconstructor () ERC721 (\"Color\", \"COLOR\") {\r\n\t}\r\n}",
  "sourcePath": "C:/Users/petari/Desktop/coding project folder/solidity/nft_build/contracts/Color.sol",
  "compiler": {
    "name": "solc",
    "version": "0.8.0+commit.c7dfd78e.Emscripten.clang"
  },
  "schemaVersion": "3.2.3",
  "updatedAt": "2021-11-20T17:07:49.970Z",
  "networkType": "ethereum",
  "devdoc": {
    "kind": "dev",
    "methods": {
      "approve(address,uint256)": {
        "details": "See {IERC721-approve}."
      },
      "balanceOf(address)": {
        "details": "See {IERC721-balanceOf}."
      },
      "getApproved(uint256)": {
        "details": "See {IERC721-getApproved}."
      },
      "isApprovedForAll(address,address)": {
        "details": "See {IERC721-isApprovedForAll}."
      },
      "name()": {
        "details": "See {IERC721Metadata-name}."
      },
      "ownerOf(uint256)": {
        "details": "See {IERC721-ownerOf}."
      },
      "safeTransferFrom(address,address,uint256)": {
        "details": "See {IERC721-safeTransferFrom}."
      },
      "safeTransferFrom(address,address,uint256,bytes)": {
        "details": "See {IERC721-safeTransferFrom}."
      },
      "setApprovalForAll(address,bool)": {
        "details": "See {IERC721-setApprovalForAll}."
      },
      "supportsInterface(bytes4)": {
        "details": "See {IERC165-supportsInterface}."
      },
      "symbol()": {
        "details": "See {IERC721Metadata-symbol}."
      },
      "tokenURI(uint256)": {
        "details": "See {IERC721Metadata-tokenURI}."
      },
      "transferFrom(address,address,uint256)": {
        "details": "See {IERC721-transferFrom}."
      }
    },
    "version": 1
  },
  "userdoc": {
    "kind": "user",
    "methods": {},
    "version": 1
  }
}