{
  "contractName": "Maps",
  "abi": [
    {
      "inputs": [],
      "stateMutability": "nonpayable",
      "type": "constructor"
    },
    {
      "inputs": [
        {
          "internalType": "uint256",
          "name": "",
          "type": "uint256"
        }
      ],
      "name": "catalogue",
      "outputs": [
        {
          "internalType": "uint256",
          "name": "",
          "type": "uint256"
        }
      ],
      "stateMutability": "view",
      "type": "function"
    },
    {
      "inputs": [
        {
          "internalType": "uint256",
          "name": "",
          "type": "uint256"
        }
      ],
      "name": "inSale",
      "outputs": [
        {
          "internalType": "bool",
          "name": "",
          "type": "bool"
        }
      ],
      "stateMutability": "view",
      "type": "function"
    },
    {
      "inputs": [
        {
          "internalType": "uint256",
          "name": "",
          "type": "uint256"
        }
      ],
      "name": "price",
      "outputs": [
        {
          "internalType": "uint256",
          "name": "",
          "type": "uint256"
        }
      ],
      "stateMutability": "view",
      "type": "function"
    },
    {
      "inputs": [
        {
          "internalType": "uint256",
          "name": "",
          "type": "uint256"
        }
      ],
      "name": "tokenOwner",
      "outputs": [
        {
          "internalType": "address",
          "name": "",
          "type": "address"
        }
      ],
      "stateMutability": "view",
      "type": "function"
    },
    {
      "inputs": [
        {
          "internalType": "string",
          "name": "_uri",
          "type": "string"
        }
      ],
      "name": "setUris",
      "outputs": [],
      "stateMutability": "nonpayable",
      "type": "function"
    },
    {
      "inputs": [
        {
          "internalType": "uint256",
          "name": "tokenId",
          "type": "uint256"
        },
        {
          "internalType": "uint256",
          "name": "_price",
          "type": "uint256"
        }
      ],
      "name": "setForSale",
      "outputs": [],
      "stateMutability": "nonpayable",
      "type": "function"
    },
    {
      "inputs": [],
      "name": "getCatalogue",
      "outputs": [
        {
          "internalType": "uint256[]",
          "name": "",
          "type": "uint256[]"
        }
      ],
      "stateMutability": "view",
      "type": "function"
    },
    {
      "inputs": [
        {
          "internalType": "uint256",
          "name": "tokenId",
          "type": "uint256"
        }
      ],
      "name": "buyNFT",
      "outputs": [
        {
          "internalType": "uint256",
          "name": "",
          "type": "uint256"
        }
      ],
      "stateMutability": "payable",
      "type": "function"
    }
  ],
  "bytecode": "0x608060405234801561001057600080fd5b506001600581905550610d7c806100286000396000f3fe60806040526004361061007b5760003560e01c80632a42a84a1161004e5780632a42a84a146101605780634ce520511461018957806351ed8288146101b45780636068f374146101e45761007b565b806317fcfe22146100805780631caaa487146100a95780631e0d9560146100e657806326a49e3714610123575b600080fd5b34801561008c57600080fd5b506100a760048036038101906100a29190610858565b610221565b005b3480156100b557600080fd5b506100d060048036038101906100cb919061082f565b61039a565b6040516100dd9190610a52565b60405180910390f35b3480156100f257600080fd5b5061010d6004803603810190610108919061082f565b6103cd565b60405161011a9190610b0a565b60405180910390f35b34801561012f57600080fd5b5061014a6004803603810190610145919061082f565b6103f1565b6040516101579190610b0a565b60405180910390f35b34801561016c57600080fd5b50610187600480360381019061018291906107ee565b610409565b005b34801561019557600080fd5b5061019e61050c565b6040516101ab9190610a6d565b60405180910390f35b6101ce60048036038101906101c9919061082f565b610564565b6040516101db9190610b0a565b60405180910390f35b3480156101f057600080fd5b5061020b6004803603810190610206919061082f565b6106ae565b6040516102189190610a8f565b60405180910390f35b3373ffffffffffffffffffffffffffffffffffffffff166001600084815260200190815260200160002060009054906101000a900473ffffffffffffffffffffffffffffffffffffffff1673ffffffffffffffffffffffffffffffffffffffff16146102c2576040517f08c379a00000000000000000000000000000000000000000000000000000000081526004016102b990610aea565b60405180910390fd5b600015156002600084815260200190815260200160002060009054906101000a900460ff16151514610329576040517f08c379a000000000000000000000000000000000000000000000000000000000815260040161032090610aca565b60405180910390fd5b60016002600084815260200190815260200160002060006101000a81548160ff02191690831515021790555080600360008481526020019081526020016000208190555060048290806001815401808255809150506001900390600052602060002001600090919091909150555050565b60016020528060005260406000206000915054906101000a900473ffffffffffffffffffffffffffffffffffffffff1681565b600481815481106103dd57600080fd5b906000526020600020016000915090505481565b60036020528060005260406000206000915090505481565b80600080600554815260200190815260200160002060003373ffffffffffffffffffffffffffffffffffffffff1673ffffffffffffffffffffffffffffffffffffffff168152602001908152602001600020908051906020019061046e9291906106ce565b503360016000600554815260200190815260200160002060006101000a81548173ffffffffffffffffffffffffffffffffffffffff021916908373ffffffffffffffffffffffffffffffffffffffff160217905550600060026000600554815260200190815260200160002060006101000a81548160ff0219169083151502179055506005600081548092919061050490610c59565b919050555050565b6060600480548060200260200160405190810160405280929190818152602001828054801561055a57602002820191906000526020600020905b815481526020019060010190808311610546575b5050505050905090565b600060036000838152602001908152602001600020543410156105bc576040517f08c379a00000000000000000000000000000000000000000000000000000000081526004016105b390610aaa565b60405180910390fd5b6000600480549050905060005b818110156106a757836004828154811061060c577f4e487b7100000000000000000000000000000000000000000000000000000000600052603260045260246000fd5b9060005260206000200154141561069457336001600086815260200190815260200160002060006101000a81548173ffffffffffffffffffffffffffffffffffffffff021916908373ffffffffffffffffffffffffffffffffffffffff160217905550600015156002600086815260200190815260200160002060009054906101000a905050505b808061069f90610c59565b9150506105c9565b5050919050565b60026020528060005260406000206000915054906101000a900460ff1681565b8280546106da90610c27565b90600052602060002090601f0160209004810192826106fc5760008555610743565b82601f1061071557805160ff1916838001178555610743565b82800160010185558215610743579182015b82811115610742578251825591602001919060010190610727565b5b5090506107509190610754565b5090565b5b8082111561076d576000816000905550600101610755565b5090565b600061078461077f84610b56565b610b25565b90508281526020810184848401111561079c57600080fd5b6107a7848285610c18565b509392505050565b600082601f8301126107c057600080fd5b81356107d0848260208601610771565b91505092915050565b6000813590506107e881610d2f565b92915050565b60006020828403121561080057600080fd5b600082013567ffffffffffffffff81111561081a57600080fd5b610826848285016107af565b91505092915050565b60006020828403121561084157600080fd5b600061084f848285016107d9565b91505092915050565b6000806040838503121561086b57600080fd5b6000610879858286016107d9565b925050602061088a858286016107d9565b9150509250929050565b60006108a08383610a34565b60208301905092915050565b6108b581610bd0565b82525050565b60006108c682610b96565b6108d08185610bae565b93506108db83610b86565b8060005b8381101561090c5781516108f38882610894565b97506108fe83610ba1565b9250506001810190506108df565b5085935050505092915050565b61092281610be2565b82525050565b6000610935601b83610bbf565b91507f4e6f7420656e6f756768742045746865722070726f76696465642e00000000006000830152602082019050919050565b6000610975602f83610bbf565b91507f54686520746f6b656e206964206d7573742068617665206e6f74206265656e2060008301527f696e2073616c65206265666f72652e00000000000000000000000000000000006020830152604082019050919050565b60006109db603683610bbf565b91507f596f75206861766520746f206f776e2074686520746f6b656e20696e206f726460008301527f657220746f2073657420697420666f722073616c652e000000000000000000006020830152604082019050919050565b610a3d81610c0e565b82525050565b610a4c81610c0e565b82525050565b6000602082019050610a6760008301846108ac565b92915050565b60006020820190508181036000830152610a8781846108bb565b905092915050565b6000602082019050610aa46000830184610919565b92915050565b60006020820190508181036000830152610ac381610928565b9050919050565b60006020820190508181036000830152610ae381610968565b9050919050565b60006020820190508181036000830152610b03816109ce565b9050919050565b6000602082019050610b1f6000830184610a43565b92915050565b6000604051905081810181811067ffffffffffffffff82111715610b4c57610b4b610d00565b5b8060405250919050565b600067ffffffffffffffff821115610b7157610b70610d00565b5b601f19601f8301169050602081019050919050565b6000819050602082019050919050565b600081519050919050565b6000602082019050919050565b600082825260208201905092915050565b600082825260208201905092915050565b6000610bdb82610bee565b9050919050565b60008115159050919050565b600073ffffffffffffffffffffffffffffffffffffffff82169050919050565b6000819050919050565b82818337600083830152505050565b60006002820490506001821680610c3f57607f821691505b60208210811415610c5357610c52610cd1565b5b50919050565b6000610c6482610c0e565b91507fffffffffffffffffffffffffffffffffffffffffffffffffffffffffffffffff821415610c9757610c96610ca2565b5b600182019050919050565b7f4e487b7100000000000000000000000000000000000000000000000000000000600052601160045260246000fd5b7f4e487b7100000000000000000000000000000000000000000000000000000000600052602260045260246000fd5b7f4e487b7100000000000000000000000000000000000000000000000000000000600052604160045260246000fd5b610d3881610c0e565b8114610d4357600080fd5b5056fea26469706673582212208d3506587594bb9f31746bfaaf2da19daf2e9a2872e77c6d67eb5f3ee4a8b4bc64736f6c63430008000033",
  "immutableReferences": {},
  "source": "contract Maps {\r\n    //mapping(uint256 => mapping(address => string)) public ;\r\n    mapping(uint256 => mapping(address => string)) tokenUri;\r\n    mapping(uint256 => address) public tokenOwner;\r\n    mapping(uint256 => bool) public inSale;\r\n    mapping(uint256 => uint) public price;\r\n\r\n    uint256[] public catalogue;\r\n    uint256 tokenCounter;\r\n\r\n    constructor() public {\r\n        tokenCounter = 1;\r\n    }\r\n\r\n    function setUris(string memory _uri) public {\r\n        tokenUri[tokenCounter][msg.sender] = _uri;\r\n        tokenOwner[tokenCounter] = msg.sender; \r\n        inSale[tokenCounter] = false;\r\n        tokenCounter++;\r\n    }\r\n\r\n    function setForSale(uint256 tokenId, uint _price) public {\r\n        require(tokenOwner[tokenId] == msg.sender, \"You have to own the token in order to set it for sale.\");\r\n        require(inSale[tokenId] == false, \"The token id must have not been in sale before.\");\r\n\r\n        inSale[tokenId] = true;\r\n        price[tokenId] = _price;\r\n        catalogue.push(tokenId);\r\n    }\r\n\r\n    function getCatalogue() public view returns (uint256[] memory) {\r\n        return catalogue;\r\n    }\r\n\r\n    function buyNFT(uint256 tokenId) payable public returns (uint256) {\r\n        require(msg.value >= price[tokenId], \"Not enought Ether provided.\");\r\n        uint256 cat_len = catalogue.length;\r\n        for (uint i = 0; i < cat_len; i++) {\r\n            if (catalogue[i] == tokenId)\r\n            {\r\n                tokenOwner[tokenId] = msg.sender;\r\n                inSale[tokenId] == false;\r\n            }\r\n        }\r\n    }\r\n}\r\n",
  "sourcePath": "C:/Users/petari/Desktop/coding project folder/solidity/nft_build/contracts/maps.sol",
  "compiler": {
    "name": "solc",
    "version": "0.8.0+commit.c7dfd78e.Emscripten.clang"
  },
  "schemaVersion": "3.2.3",
  "updatedAt": "2021-12-12T13:11:22.630Z",
  "devdoc": {
    "kind": "dev",
    "methods": {},
    "version": 1
  },
  "userdoc": {
    "kind": "user",
    "methods": {},
    "version": 1
  }
}