{
  "contractName": "Safe",
  "abi": [
    {
      "inputs": [],
      "stateMutability": "nonpayable",
      "type": "constructor"
    },
    {
      "anonymous": false,
      "inputs": [
        {
          "indexed": true,
          "internalType": "address",
          "name": "owner",
          "type": "address"
        },
        {
          "indexed": true,
          "internalType": "address",
          "name": "approved",
          "type": "address"
        },
        {
          "indexed": true,
          "internalType": "uint256",
          "name": "tokenId",
          "type": "uint256"
        }
      ],
      "name": "Approval",
      "type": "event"
    },
    {
      "anonymous": false,
      "inputs": [
        {
          "indexed": true,
          "internalType": "address",
          "name": "owner",
          "type": "address"
        },
        {
          "indexed": true,
          "internalType": "address",
          "name": "operator",
          "type": "address"
        },
        {
          "indexed": false,
          "internalType": "bool",
          "name": "approved",
          "type": "bool"
        }
      ],
      "name": "ApprovalForAll",
      "type": "event"
    },
    {
      "anonymous": false,
      "inputs": [
        {
          "indexed": true,
          "internalType": "address",
          "name": "from",
          "type": "address"
        },
        {
          "indexed": true,
          "internalType": "address",
          "name": "to",
          "type": "address"
        },
        {
          "indexed": true,
          "internalType": "uint256",
          "name": "tokenId",
          "type": "uint256"
        }
      ],
      "name": "Transfer",
      "type": "event"
    },
    {
      "inputs": [
        {
          "internalType": "address",
          "name": "to",
          "type": "address"
        },
        {
          "internalType": "uint256",
          "name": "tokenId",
          "type": "uint256"
        }
      ],
      "name": "approve",
      "outputs": [],
      "stateMutability": "nonpayable",
      "type": "function"
    },
    {
      "inputs": [
        {
          "internalType": "address",
          "name": "owner",
          "type": "address"
        }
      ],
      "name": "balanceOf",
      "outputs": [
        {
          "internalType": "uint256",
          "name": "",
          "type": "uint256"
        }
      ],
      "stateMutability": "view",
      "type": "function"
    },
    {
      "inputs": [
        {
          "internalType": "uint256",
          "name": "tokenId",
          "type": "uint256"
        }
      ],
      "name": "getApproved",
      "outputs": [
        {
          "internalType": "address",
          "name": "",
          "type": "address"
        }
      ],
      "stateMutability": "view",
      "type": "function"
    },
    {
      "inputs": [
        {
          "internalType": "address",
          "name": "owner",
          "type": "address"
        },
        {
          "internalType": "address",
          "name": "operator",
          "type": "address"
        }
      ],
      "name": "isApprovedForAll",
      "outputs": [
        {
          "internalType": "bool",
          "name": "",
          "type": "bool"
        }
      ],
      "stateMutability": "view",
      "type": "function"
    },
    {
      "inputs": [],
      "name": "name",
      "outputs": [
        {
          "internalType": "string",
          "name": "",
          "type": "string"
        }
      ],
      "stateMutability": "view",
      "type": "function"
    },
    {
      "inputs": [
        {
          "internalType": "uint256",
          "name": "tokenId",
          "type": "uint256"
        }
      ],
      "name": "ownerOf",
      "outputs": [
        {
          "internalType": "address",
          "name": "",
          "type": "address"
        }
      ],
      "stateMutability": "view",
      "type": "function"
    },
    {
      "inputs": [
        {
          "internalType": "address",
          "name": "from",
          "type": "address"
        },
        {
          "internalType": "address",
          "name": "to",
          "type": "address"
        },
        {
          "internalType": "uint256",
          "name": "tokenId",
          "type": "uint256"
        }
      ],
      "name": "safeTransferFrom",
      "outputs": [],
      "stateMutability": "nonpayable",
      "type": "function"
    },
    {
      "inputs": [
        {
          "internalType": "address",
          "name": "from",
          "type": "address"
        },
        {
          "internalType": "address",
          "name": "to",
          "type": "address"
        },
        {
          "internalType": "uint256",
          "name": "tokenId",
          "type": "uint256"
        },
        {
          "internalType": "bytes",
          "name": "_data",
          "type": "bytes"
        }
      ],
      "name": "safeTransferFrom",
      "outputs": [],
      "stateMutability": "nonpayable",
      "type": "function"
    },
    {
      "inputs": [
        {
          "internalType": "address",
          "name": "operator",
          "type": "address"
        },
        {
          "internalType": "bool",
          "name": "approved",
          "type": "bool"
        }
      ],
      "name": "setApprovalForAll",
      "outputs": [],
      "stateMutability": "nonpayable",
      "type": "function"
    },
    {
      "inputs": [
        {
          "internalType": "bytes4",
          "name": "interfaceId",
          "type": "bytes4"
        }
      ],
      "name": "supportsInterface",
      "outputs": [
        {
          "internalType": "bool",
          "name": "",
          "type": "bool"
        }
      ],
      "stateMutability": "view",
      "type": "function"
    },
    {
      "inputs": [],
      "name": "symbol",
      "outputs": [
        {
          "internalType": "string",
          "name": "",
          "type": "string"
        }
      ],
      "stateMutability": "view",
      "type": "function"
    },
    {
      "inputs": [
        {
          "internalType": "uint256",
          "name": "tokenId",
          "type": "uint256"
        }
      ],
      "name": "tokenURI",
      "outputs": [
        {
          "internalType": "string",
          "name": "",
          "type": "string"
        }
      ],
      "stateMutability": "view",
      "type": "function"
    },
    {
      "inputs": [
        {
          "internalType": "address",
          "name": "from",
          "type": "address"
        },
        {
          "internalType": "address",
          "name": "to",
          "type": "address"
        },
        {
          "internalType": "uint256",
          "name": "tokenId",
          "type": "uint256"
        }
      ],
      "name": "transferFrom",
      "outputs": [],
      "stateMutability": "nonpayable",
      "type": "function"
    },
    {
      "inputs": [
        {
          "internalType": "address",
          "name": "_from",
          "type": "address"
        },
        {
          "internalType": "address",
          "name": "_to",
          "type": "address"
        },
        {
          "internalType": "uint256",
          "name": "_tokenId",
          "type": "uint256"
        }
      ],
      "name": "transferer",
      "outputs": [],
      "stateMutability": "nonpayable",
      "type": "function"
    }
  ],
  "bytecode": "0x60806040523480156200001157600080fd5b506040518060400160405280600781526020017f535647204e4654000000000000000000000000000000000000000000000000008152506040518060400160405280600681526020017f7376674e46540000000000000000000000000000000000000000000000000000815250816000908051906020019062000096929190620000b8565b508060019080519060200190620000af929190620000b8565b505050620001cd565b828054620000c69062000168565b90600052602060002090601f016020900481019282620000ea576000855562000136565b82601f106200010557805160ff191683800117855562000136565b8280016001018555821562000136579182015b828111156200013557825182559160200191906001019062000118565b5b50905062000145919062000149565b5090565b5b80821115620001645760008160009055506001016200014a565b5090565b600060028204905060018216806200018157607f821691505b602082108114156200019857620001976200019e565b5b50919050565b7f4e487b7100000000000000000000000000000000000000000000000000000000600052602260045260246000fd5b61251e80620001dd6000396000f3fe608060405234801561001057600080fd5b50600436106100ea5760003560e01c80636352211e1161008c578063a22cb46511610066578063a22cb4651461025b578063b88d4fde14610277578063c87b56dd14610293578063e985e9c5146102c3576100ea565b80636352211e146101dd57806370a082311461020d57806395d89b411461023d576100ea565b8063095ea7b3116100c8578063095ea7b31461016d57806323b872dd146101895780633c6d0a83146101a557806342842e0e146101c1576100ea565b806301ffc9a7146100ef57806306fdde031461011f578063081812fc1461013d575b600080fd5b61010960048036038101906101049190611828565b6102f3565b6040516101169190611f06565b60405180910390f35b6101276103d5565b6040516101349190611f21565b60405180910390f35b6101576004803603810190610152919061187a565b610467565b6040516101649190611e9f565b60405180910390f35b610187600480360381019061018291906117ec565b6104ec565b005b6101a3600480360381019061019e91906116e6565b610604565b005b6101bf60048036038101906101ba91906116e6565b610664565b005b6101db60048036038101906101d691906116e6565b610684565b005b6101f760048036038101906101f2919061187a565b6106a4565b6040516102049190611e9f565b60405180910390f35b61022760048036038101906102229190611681565b610756565b60405161023491906120e3565b60405180910390f35b61024561080e565b6040516102529190611f21565b60405180910390f35b610275600480360381019061027091906117b0565b6108a0565b005b610291600480360381019061028c9190611735565b610a21565b005b6102ad60048036038101906102a8919061187a565b610a83565b6040516102ba9190611f21565b60405180910390f35b6102dd60048036038101906102d891906116aa565b610bd5565b6040516102ea9190611f06565b60405180910390f35b60007f80ac58cd000000000000000000000000000000000000000000000000000000007bffffffffffffffffffffffffffffffffffffffffffffffffffffffff1916827bffffffffffffffffffffffffffffffffffffffffffffffffffffffff191614806103be57507f5b5e139f000000000000000000000000000000000000000000000000000000007bffffffffffffffffffffffffffffffffffffffffffffffffffffffff1916827bffffffffffffffffffffffffffffffffffffffffffffffffffffffff1916145b806103ce57506103cd82610c69565b5b9050919050565b6060600080546103e490612313565b80601f016020809104026020016040519081016040528092919081815260200182805461041090612313565b801561045d5780601f106104325761010080835404028352916020019161045d565b820191906000526020600020905b81548152906001019060200180831161044057829003601f168201915b5050505050905090565b600061047282610cd3565b6104b1576040517f08c379a00000000000000000000000000000000000000000000000000000000081526004016104a890612043565b60405180910390fd5b6004600083815260200190815260200160002060009054906101000a900473ffffffffffffffffffffffffffffffffffffffff169050919050565b60006104f7826106a4565b90508073ffffffffffffffffffffffffffffffffffffffff168373ffffffffffffffffffffffffffffffffffffffff161415610568576040517f08c379a000000000000000000000000000000000000000000000000000000000815260040161055f906120a3565b60405180910390fd5b8073ffffffffffffffffffffffffffffffffffffffff16610587610d3f565b73ffffffffffffffffffffffffffffffffffffffff1614806105b657506105b5816105b0610d3f565b610bd5565b5b6105f5576040517f08c379a00000000000000000000000000000000000000000000000000000000081526004016105ec90611fc3565b60405180910390fd5b6105ff8383610d47565b505050565b61061561060f610d3f565b82610e00565b610654576040517f08c379a000000000000000000000000000000000000000000000000000000000815260040161064b906120c3565b60405180910390fd5b61065f838383610ede565b505050565b61067f8383836040518060200160405280600081525061113a565b505050565b61069f83838360405180602001604052806000815250610a21565b505050565b6000806002600084815260200190815260200160002060009054906101000a900473ffffffffffffffffffffffffffffffffffffffff169050600073ffffffffffffffffffffffffffffffffffffffff168173ffffffffffffffffffffffffffffffffffffffff16141561074d576040517f08c379a000000000000000000000000000000000000000000000000000000000815260040161074490612003565b60405180910390fd5b80915050919050565b60008073ffffffffffffffffffffffffffffffffffffffff168273ffffffffffffffffffffffffffffffffffffffff1614156107c7576040517f08c379a00000000000000000000000000000000000000000000000000000000081526004016107be90611fe3565b60405180910390fd5b600360008373ffffffffffffffffffffffffffffffffffffffff1673ffffffffffffffffffffffffffffffffffffffff168152602001908152602001600020549050919050565b60606001805461081d90612313565b80601f016020809104026020016040519081016040528092919081815260200182805461084990612313565b80156108965780601f1061086b57610100808354040283529160200191610896565b820191906000526020600020905b81548152906001019060200180831161087957829003601f168201915b5050505050905090565b6108a8610d3f565b73ffffffffffffffffffffffffffffffffffffffff168273ffffffffffffffffffffffffffffffffffffffff161415610916576040517f08c379a000000000000000000000000000000000000000000000000000000000815260040161090d90611f83565b60405180910390fd5b8060056000610923610d3f565b73ffffffffffffffffffffffffffffffffffffffff1673ffffffffffffffffffffffffffffffffffffffff16815260200190815260200160002060008473ffffffffffffffffffffffffffffffffffffffff1673ffffffffffffffffffffffffffffffffffffffff16815260200190815260200160002060006101000a81548160ff0219169083151502179055508173ffffffffffffffffffffffffffffffffffffffff166109d0610d3f565b73ffffffffffffffffffffffffffffffffffffffff167f17307eab39ab6107e8899845ad3d59bd9653f200f220920489ca2b5937696c3183604051610a159190611f06565b60405180910390a35050565b610a32610a2c610d3f565b83610e00565b610a71576040517f08c379a0000000000000000000000000000000000000000000000000000000008152600401610a68906120c3565b60405180910390fd5b610a7d8484848461113a565b50505050565b6060610a8e82610cd3565b610acd576040517f08c379a0000000000000000000000000000000000000000000000000000000008152600401610ac490612023565b60405180910390fd5b6000600660008481526020019081526020016000208054610aed90612313565b80601f0160208091040260200160405190810160405280929190818152602001828054610b1990612313565b8015610b665780601f10610b3b57610100808354040283529160200191610b66565b820191906000526020600020905b815481529060010190602001808311610b4957829003601f168201915b505050505090506000610b77611196565b9050600081511415610b8d578192505050610bd0565b600082511115610bc2578082604051602001610baa929190611e7b565b60405160208183030381529060405292505050610bd0565b610bcb846111ad565b925050505b919050565b6000600560008473ffffffffffffffffffffffffffffffffffffffff1673ffffffffffffffffffffffffffffffffffffffff16815260200190815260200160002060008373ffffffffffffffffffffffffffffffffffffffff1673ffffffffffffffffffffffffffffffffffffffff16815260200190815260200160002060009054906101000a900460ff16905092915050565b60007f01ffc9a7000000000000000000000000000000000000000000000000000000007bffffffffffffffffffffffffffffffffffffffffffffffffffffffff1916827bffffffffffffffffffffffffffffffffffffffffffffffffffffffff1916149050919050565b60008073ffffffffffffffffffffffffffffffffffffffff166002600084815260200190815260200160002060009054906101000a900473ffffffffffffffffffffffffffffffffffffffff1673ffffffffffffffffffffffffffffffffffffffff1614159050919050565b600033905090565b816004600083815260200190815260200160002060006101000a81548173ffffffffffffffffffffffffffffffffffffffff021916908373ffffffffffffffffffffffffffffffffffffffff160217905550808273ffffffffffffffffffffffffffffffffffffffff16610dba836106a4565b73ffffffffffffffffffffffffffffffffffffffff167f8c5be1e5ebec7d5bd14f71427d1e84f3dd0314c0f7b2291e5b200ac8c7c3b92560405160405180910390a45050565b6000610e0b82610cd3565b610e4a576040517f08c379a0000000000000000000000000000000000000000000000000000000008152600401610e4190611fa3565b60405180910390fd5b6000610e55836106a4565b90508073ffffffffffffffffffffffffffffffffffffffff168473ffffffffffffffffffffffffffffffffffffffff161480610ec457508373ffffffffffffffffffffffffffffffffffffffff16610eac84610467565b73ffffffffffffffffffffffffffffffffffffffff16145b80610ed55750610ed48185610bd5565b5b91505092915050565b8273ffffffffffffffffffffffffffffffffffffffff16610efe826106a4565b73ffffffffffffffffffffffffffffffffffffffff1614610f54576040517f08c379a0000000000000000000000000000000000000000000000000000000008152600401610f4b90612063565b60405180910390fd5b600073ffffffffffffffffffffffffffffffffffffffff168273ffffffffffffffffffffffffffffffffffffffff161415610fc4576040517f08c379a0000000000000000000000000000000000000000000000000000000008152600401610fbb90611f63565b60405180910390fd5b610fcf838383611254565b610fda600082610d47565b6001600360008573ffffffffffffffffffffffffffffffffffffffff1673ffffffffffffffffffffffffffffffffffffffff168152602001908152602001600020600082825461102a9190612229565b925050819055506001600360008473ffffffffffffffffffffffffffffffffffffffff1673ffffffffffffffffffffffffffffffffffffffff168152602001908152602001600020600082825461108191906121a2565b92505081905550816002600083815260200190815260200160002060006101000a81548173ffffffffffffffffffffffffffffffffffffffff021916908373ffffffffffffffffffffffffffffffffffffffff160217905550808273ffffffffffffffffffffffffffffffffffffffff168473ffffffffffffffffffffffffffffffffffffffff167fddf252ad1be2c89b69c2b068fc378daa952ba7f163c4a11628f55a4df523b3ef60405160405180910390a4505050565b611145848484610ede565b61115184848484611259565b611190576040517f08c379a000000000000000000000000000000000000000000000000000000000815260040161118790611f43565b60405180910390fd5b50505050565b606060405180602001604052806000815250905090565b60606111b882610cd3565b6111f7576040517f08c379a00000000000000000000000000000000000000000000000000000000081526004016111ee90612083565b60405180910390fd5b6000611201611196565b90506000815111611221576040518060200160405280600081525061124c565b8061122b846113f0565b60405160200161123c929190611e7b565b6040516020818303038152906040525b915050919050565b505050565b600061127a8473ffffffffffffffffffffffffffffffffffffffff1661159d565b156113e3578373ffffffffffffffffffffffffffffffffffffffff1663150b7a026112a3610d3f565b8786866040518563ffffffff1660e01b81526004016112c59493929190611eba565b602060405180830381600087803b1580156112df57600080fd5b505af192505050801561131057506040513d601f19601f8201168201806040525081019061130d9190611851565b60015b611393573d8060008114611340576040519150601f19603f3d011682016040523d82523d6000602084013e611345565b606091505b5060008151141561138b576040517f08c379a000000000000000000000000000000000000000000000000000000000815260040161138290611f43565b60405180910390fd5b805181602001fd5b63150b7a0260e01b7bffffffffffffffffffffffffffffffffffffffffffffffffffffffff1916817bffffffffffffffffffffffffffffffffffffffffffffffffffffffff1916149150506113e8565b600190505b949350505050565b60606000821415611438576040518060400160405280600181526020017f30000000000000000000000000000000000000000000000000000000000000008152509050611598565b600082905060005b6000821461146a57808061145390612345565b915050600a8261146391906121f8565b9150611440565b60008167ffffffffffffffff8111156114ac577f4e487b7100000000000000000000000000000000000000000000000000000000600052604160045260246000fd5b6040519080825280601f01601f1916602001820160405280156114de5781602001600182028036833780820191505090505b5090505b60008514611591576001826114f79190612229565b9150600a85611506919061238e565b603061151291906121a2565b60f81b81838151811061154e577f4e487b7100000000000000000000000000000000000000000000000000000000600052603260045260246000fd5b60200101907effffffffffffffffffffffffffffffffffffffffffffffffffffffffffffff1916908160001a905350600a8561158a91906121f8565b94506114e2565b8093505050505b919050565b600080823b905060008111915050919050565b60006115c36115be8461212f565b6120fe565b9050828152602081018484840111156115db57600080fd5b6115e68482856122d1565b509392505050565b6000813590506115fd8161248c565b92915050565b600081359050611612816124a3565b92915050565b600081359050611627816124ba565b92915050565b60008151905061163c816124ba565b92915050565b600082601f83011261165357600080fd5b81356116638482602086016115b0565b91505092915050565b60008135905061167b816124d1565b92915050565b60006020828403121561169357600080fd5b60006116a1848285016115ee565b91505092915050565b600080604083850312156116bd57600080fd5b60006116cb858286016115ee565b92505060206116dc858286016115ee565b9150509250929050565b6000806000606084860312156116fb57600080fd5b6000611709868287016115ee565b935050602061171a868287016115ee565b925050604061172b8682870161166c565b9150509250925092565b6000806000806080858703121561174b57600080fd5b6000611759878288016115ee565b945050602061176a878288016115ee565b935050604061177b8782880161166c565b925050606085013567ffffffffffffffff81111561179857600080fd5b6117a487828801611642565b91505092959194509250565b600080604083850312156117c357600080fd5b60006117d1858286016115ee565b92505060206117e285828601611603565b9150509250929050565b600080604083850312156117ff57600080fd5b600061180d858286016115ee565b925050602061181e8582860161166c565b9150509250929050565b60006020828403121561183a57600080fd5b600061184884828501611618565b91505092915050565b60006020828403121561186357600080fd5b60006118718482850161162d565b91505092915050565b60006020828403121561188c57600080fd5b600061189a8482850161166c565b91505092915050565b6118ac8161225d565b82525050565b6118bb8161226f565b82525050565b60006118cc8261215f565b6118d68185612175565b93506118e68185602086016122e0565b6118ef8161247b565b840191505092915050565b60006119058261216a565b61190f8185612186565b935061191f8185602086016122e0565b6119288161247b565b840191505092915050565b600061193e8261216a565b6119488185612197565b93506119588185602086016122e0565b80840191505092915050565b6000611971603283612186565b91507f4552433732313a207472616e7366657220746f206e6f6e20455243373231526560008301527f63656976657220696d706c656d656e74657200000000000000000000000000006020830152604082019050919050565b60006119d7602483612186565b91507f4552433732313a207472616e7366657220746f20746865207a65726f2061646460008301527f72657373000000000000000000000000000000000000000000000000000000006020830152604082019050919050565b6000611a3d601983612186565b91507f4552433732313a20617070726f766520746f2063616c6c6572000000000000006000830152602082019050919050565b6000611a7d602c83612186565b91507f4552433732313a206f70657261746f7220717565727920666f72206e6f6e657860008301527f697374656e7420746f6b656e00000000000000000000000000000000000000006020830152604082019050919050565b6000611ae3603883612186565b91507f4552433732313a20617070726f76652063616c6c6572206973206e6f74206f7760008301527f6e6572206e6f7220617070726f76656420666f7220616c6c00000000000000006020830152604082019050919050565b6000611b49602a83612186565b91507f4552433732313a2062616c616e636520717565727920666f7220746865207a6560008301527f726f2061646472657373000000000000000000000000000000000000000000006020830152604082019050919050565b6000611baf602983612186565b91507f4552433732313a206f776e657220717565727920666f72206e6f6e657869737460008301527f656e7420746f6b656e00000000000000000000000000000000000000000000006020830152604082019050919050565b6000611c15603183612186565b91507f45524337323155524953746f726167653a2055524920717565727920666f722060008301527f6e6f6e6578697374656e7420746f6b656e0000000000000000000000000000006020830152604082019050919050565b6000611c7b602c83612186565b91507f4552433732313a20617070726f76656420717565727920666f72206e6f6e657860008301527f697374656e7420746f6b656e00000000000000000000000000000000000000006020830152604082019050919050565b6000611ce1602983612186565b91507f4552433732313a207472616e73666572206f6620746f6b656e2074686174206960008301527f73206e6f74206f776e00000000000000000000000000000000000000000000006020830152604082019050919050565b6000611d47602f83612186565b91507f4552433732314d657461646174613a2055524920717565727920666f72206e6f60008301527f6e6578697374656e7420746f6b656e00000000000000000000000000000000006020830152604082019050919050565b6000611dad602183612186565b91507f4552433732313a20617070726f76616c20746f2063757272656e74206f776e6560008301527f72000000000000000000000000000000000000000000000000000000000000006020830152604082019050919050565b6000611e13603183612186565b91507f4552433732313a207472616e736665722063616c6c6572206973206e6f74206f60008301527f776e6572206e6f7220617070726f7665640000000000000000000000000000006020830152604082019050919050565b611e75816122c7565b82525050565b6000611e878285611933565b9150611e938284611933565b91508190509392505050565b6000602082019050611eb460008301846118a3565b92915050565b6000608082019050611ecf60008301876118a3565b611edc60208301866118a3565b611ee96040830185611e6c565b8181036060830152611efb81846118c1565b905095945050505050565b6000602082019050611f1b60008301846118b2565b92915050565b60006020820190508181036000830152611f3b81846118fa565b905092915050565b60006020820190508181036000830152611f5c81611964565b9050919050565b60006020820190508181036000830152611f7c816119ca565b9050919050565b60006020820190508181036000830152611f9c81611a30565b9050919050565b60006020820190508181036000830152611fbc81611a70565b9050919050565b60006020820190508181036000830152611fdc81611ad6565b9050919050565b60006020820190508181036000830152611ffc81611b3c565b9050919050565b6000602082019050818103600083015261201c81611ba2565b9050919050565b6000602082019050818103600083015261203c81611c08565b9050919050565b6000602082019050818103600083015261205c81611c6e565b9050919050565b6000602082019050818103600083015261207c81611cd4565b9050919050565b6000602082019050818103600083015261209c81611d3a565b9050919050565b600060208201905081810360008301526120bc81611da0565b9050919050565b600060208201905081810360008301526120dc81611e06565b9050919050565b60006020820190506120f86000830184611e6c565b92915050565b6000604051905081810181811067ffffffffffffffff821117156121255761212461244c565b5b8060405250919050565b600067ffffffffffffffff82111561214a5761214961244c565b5b601f19601f8301169050602081019050919050565b600081519050919050565b600081519050919050565b600082825260208201905092915050565b600082825260208201905092915050565b600081905092915050565b60006121ad826122c7565b91506121b8836122c7565b9250827fffffffffffffffffffffffffffffffffffffffffffffffffffffffffffffffff038211156121ed576121ec6123bf565b5b828201905092915050565b6000612203826122c7565b915061220e836122c7565b92508261221e5761221d6123ee565b5b828204905092915050565b6000612234826122c7565b915061223f836122c7565b925082821015612252576122516123bf565b5b828203905092915050565b6000612268826122a7565b9050919050565b60008115159050919050565b60007fffffffff0000000000000000000000000000000000000000000000000000000082169050919050565b600073ffffffffffffffffffffffffffffffffffffffff82169050919050565b6000819050919050565b82818337600083830152505050565b60005b838110156122fe5780820151818401526020810190506122e3565b8381111561230d576000848401525b50505050565b6000600282049050600182168061232b57607f821691505b6020821081141561233f5761233e61241d565b5b50919050565b6000612350826122c7565b91507fffffffffffffffffffffffffffffffffffffffffffffffffffffffffffffffff821415612383576123826123bf565b5b600182019050919050565b6000612399826122c7565b91506123a4836122c7565b9250826123b4576123b36123ee565b5b828206905092915050565b7f4e487b7100000000000000000000000000000000000000000000000000000000600052601160045260246000fd5b7f4e487b7100000000000000000000000000000000000000000000000000000000600052601260045260246000fd5b7f4e487b7100000000000000000000000000000000000000000000000000000000600052602260045260246000fd5b7f4e487b7100000000000000000000000000000000000000000000000000000000600052604160045260246000fd5b6000601f19601f8301169050919050565b6124958161225d565b81146124a057600080fd5b50565b6124ac8161226f565b81146124b757600080fd5b50565b6124c38161227b565b81146124ce57600080fd5b50565b6124da816122c7565b81146124e557600080fd5b5056fea2646970667358221220b92f9411d883b2a7f88ca436a0c53014ec38cc44ce7fcd8c1aee44003c7c738f64736f6c63430008000033",
  "immutableReferences": {},
  "source": "//SPDX-License-Identifier: MIT\r\npragma solidity ^0.8.0;\r\n\r\n// give the contract some SVG code\r\n// output an NFT URI with this svg code\r\n// Storing all the nft metadata on chain\r\nimport \"@openzeppelin/contracts/token/ERC721/extensions/ERC721URIStorage.sol\";\r\nimport \"base64-sol/base64.sol\";\r\n\r\ncontract Safe is ERC721URIStorage {\r\n\tconstructor() ERC721(\"SVG NFT\", \"svgNFT\") {\r\n\t}\r\n\r\n\tfunction transferer(address _from, address _to, uint _tokenId) public {\r\n\t\t_safeTransfer(_from, _to, _tokenId, \"\");\r\n\t}\r\n}\r\n",
  "sourcePath": "C:/Users/petari/Desktop/coding project folder/solidity/nft_build/contracts/Safe.sol",
  "compiler": {
    "name": "solc",
    "version": "0.8.0+commit.c7dfd78e.Emscripten.clang"
  },
  "schemaVersion": "3.2.3",
  "updatedAt": "2021-12-12T15:17:21.849Z",
  "devdoc": {
    "kind": "dev",
    "methods": {
      "approve(address,uint256)": {
        "details": "See {IERC721-approve}."
      },
      "balanceOf(address)": {
        "details": "See {IERC721-balanceOf}."
      },
      "getApproved(uint256)": {
        "details": "See {IERC721-getApproved}."
      },
      "isApprovedForAll(address,address)": {
        "details": "See {IERC721-isApprovedForAll}."
      },
      "name()": {
        "details": "See {IERC721Metadata-name}."
      },
      "ownerOf(uint256)": {
        "details": "See {IERC721-ownerOf}."
      },
      "safeTransferFrom(address,address,uint256)": {
        "details": "See {IERC721-safeTransferFrom}."
      },
      "safeTransferFrom(address,address,uint256,bytes)": {
        "details": "See {IERC721-safeTransferFrom}."
      },
      "setApprovalForAll(address,bool)": {
        "details": "See {IERC721-setApprovalForAll}."
      },
      "supportsInterface(bytes4)": {
        "details": "See {IERC165-supportsInterface}."
      },
      "symbol()": {
        "details": "See {IERC721Metadata-symbol}."
      },
      "tokenURI(uint256)": {
        "details": "See {IERC721Metadata-tokenURI}."
      },
      "transferFrom(address,address,uint256)": {
        "details": "See {IERC721-transferFrom}."
      }
    },
    "version": 1
  },
  "userdoc": {
    "kind": "user",
    "methods": {},
    "version": 1
  }
}