{
  "contractName": "SimpleCollectible",
  "abi": [
    {
      "inputs": [],
      "stateMutability": "nonpayable",
      "type": "constructor"
    },
    {
      "anonymous": false,
      "inputs": [
        {
          "indexed": true,
          "internalType": "address",
          "name": "owner",
          "type": "address"
        },
        {
          "indexed": true,
          "internalType": "address",
          "name": "approved",
          "type": "address"
        },
        {
          "indexed": true,
          "internalType": "uint256",
          "name": "tokenId",
          "type": "uint256"
        }
      ],
      "name": "Approval",
      "type": "event"
    },
    {
      "anonymous": false,
      "inputs": [
        {
          "indexed": true,
          "internalType": "address",
          "name": "owner",
          "type": "address"
        },
        {
          "indexed": true,
          "internalType": "address",
          "name": "operator",
          "type": "address"
        },
        {
          "indexed": false,
          "internalType": "bool",
          "name": "approved",
          "type": "bool"
        }
      ],
      "name": "ApprovalForAll",
      "type": "event"
    },
    {
      "anonymous": false,
      "inputs": [
        {
          "indexed": true,
          "internalType": "address",
          "name": "from",
          "type": "address"
        },
        {
          "indexed": true,
          "internalType": "address",
          "name": "to",
          "type": "address"
        },
        {
          "indexed": true,
          "internalType": "uint256",
          "name": "tokenId",
          "type": "uint256"
        }
      ],
      "name": "Transfer",
      "type": "event"
    },
    {
      "inputs": [
        {
          "internalType": "address",
          "name": "to",
          "type": "address"
        },
        {
          "internalType": "uint256",
          "name": "tokenId",
          "type": "uint256"
        }
      ],
      "name": "approve",
      "outputs": [],
      "stateMutability": "nonpayable",
      "type": "function"
    },
    {
      "inputs": [
        {
          "internalType": "address",
          "name": "owner",
          "type": "address"
        }
      ],
      "name": "balanceOf",
      "outputs": [
        {
          "internalType": "uint256",
          "name": "",
          "type": "uint256"
        }
      ],
      "stateMutability": "view",
      "type": "function"
    },
    {
      "inputs": [
        {
          "internalType": "uint256",
          "name": "tokenId",
          "type": "uint256"
        }
      ],
      "name": "getApproved",
      "outputs": [
        {
          "internalType": "address",
          "name": "",
          "type": "address"
        }
      ],
      "stateMutability": "view",
      "type": "function"
    },
    {
      "inputs": [
        {
          "internalType": "address",
          "name": "owner",
          "type": "address"
        },
        {
          "internalType": "address",
          "name": "operator",
          "type": "address"
        }
      ],
      "name": "isApprovedForAll",
      "outputs": [
        {
          "internalType": "bool",
          "name": "",
          "type": "bool"
        }
      ],
      "stateMutability": "view",
      "type": "function"
    },
    {
      "inputs": [],
      "name": "name",
      "outputs": [
        {
          "internalType": "string",
          "name": "",
          "type": "string"
        }
      ],
      "stateMutability": "view",
      "type": "function"
    },
    {
      "inputs": [
        {
          "internalType": "uint256",
          "name": "tokenId",
          "type": "uint256"
        }
      ],
      "name": "ownerOf",
      "outputs": [
        {
          "internalType": "address",
          "name": "",
          "type": "address"
        }
      ],
      "stateMutability": "view",
      "type": "function"
    },
    {
      "inputs": [
        {
          "internalType": "address",
          "name": "from",
          "type": "address"
        },
        {
          "internalType": "address",
          "name": "to",
          "type": "address"
        },
        {
          "internalType": "uint256",
          "name": "tokenId",
          "type": "uint256"
        }
      ],
      "name": "safeTransferFrom",
      "outputs": [],
      "stateMutability": "nonpayable",
      "type": "function"
    },
    {
      "inputs": [
        {
          "internalType": "address",
          "name": "from",
          "type": "address"
        },
        {
          "internalType": "address",
          "name": "to",
          "type": "address"
        },
        {
          "internalType": "uint256",
          "name": "tokenId",
          "type": "uint256"
        },
        {
          "internalType": "bytes",
          "name": "_data",
          "type": "bytes"
        }
      ],
      "name": "safeTransferFrom",
      "outputs": [],
      "stateMutability": "nonpayable",
      "type": "function"
    },
    {
      "inputs": [
        {
          "internalType": "address",
          "name": "operator",
          "type": "address"
        },
        {
          "internalType": "bool",
          "name": "approved",
          "type": "bool"
        }
      ],
      "name": "setApprovalForAll",
      "outputs": [],
      "stateMutability": "nonpayable",
      "type": "function"
    },
    {
      "inputs": [
        {
          "internalType": "bytes4",
          "name": "interfaceId",
          "type": "bytes4"
        }
      ],
      "name": "supportsInterface",
      "outputs": [
        {
          "internalType": "bool",
          "name": "",
          "type": "bool"
        }
      ],
      "stateMutability": "view",
      "type": "function"
    },
    {
      "inputs": [],
      "name": "symbol",
      "outputs": [
        {
          "internalType": "string",
          "name": "",
          "type": "string"
        }
      ],
      "stateMutability": "view",
      "type": "function"
    },
    {
      "inputs": [],
      "name": "tokenCounter",
      "outputs": [
        {
          "internalType": "uint256",
          "name": "",
          "type": "uint256"
        }
      ],
      "stateMutability": "view",
      "type": "function"
    },
    {
      "inputs": [
        {
          "internalType": "uint256",
          "name": "tokenId",
          "type": "uint256"
        }
      ],
      "name": "tokenURI",
      "outputs": [
        {
          "internalType": "string",
          "name": "",
          "type": "string"
        }
      ],
      "stateMutability": "view",
      "type": "function"
    },
    {
      "inputs": [
        {
          "internalType": "address",
          "name": "from",
          "type": "address"
        },
        {
          "internalType": "address",
          "name": "to",
          "type": "address"
        },
        {
          "internalType": "uint256",
          "name": "tokenId",
          "type": "uint256"
        }
      ],
      "name": "transferFrom",
      "outputs": [],
      "stateMutability": "nonpayable",
      "type": "function"
    },
    {
      "inputs": [
        {
          "internalType": "string",
          "name": "tokenURI",
          "type": "string"
        }
      ],
      "name": "createCollectible",
      "outputs": [
        {
          "internalType": "uint256",
          "name": "",
          "type": "uint256"
        }
      ],
      "stateMutability": "nonpayable",
      "type": "function"
    }
  ],
  "bytecode": "0x60806040523480156200001157600080fd5b506040518060400160405280600581526020017f446f6769650000000000000000000000000000000000000000000000000000008152506040518060400160405280600381526020017f444f470000000000000000000000000000000000000000000000000000000000815250816000908051906020019062000096929190620000c0565b508060019080519060200190620000af929190620000c0565b5050506000600781905550620001d5565b828054620000ce9062000170565b90600052602060002090601f016020900481019282620000f257600085556200013e565b82601f106200010d57805160ff19168380011785556200013e565b828001600101855582156200013e579182015b828111156200013d57825182559160200191906001019062000120565b5b5090506200014d919062000151565b5090565b5b808211156200016c57600081600090555060010162000152565b5090565b600060028204905060018216806200018957607f821691505b60208210811415620001a0576200019f620001a6565b5b50919050565b7f4e487b7100000000000000000000000000000000000000000000000000000000600052602260045260246000fd5b612afb80620001e56000396000f3fe608060405234801561001057600080fd5b50600436106100f55760003560e01c80636352211e11610097578063b88d4fde11610066578063b88d4fde14610296578063c87b56dd146102b2578063d082e381146102e2578063e985e9c514610300576100f5565b80636352211e146101fc57806370a082311461022c57806395d89b411461025c578063a22cb4651461027a576100f5565b8063095ea7b3116100d3578063095ea7b31461017857806323b872dd1461019457806331f1f3c3146101b057806342842e0e146101e0576100f5565b806301ffc9a7146100fa57806306fdde031461012a578063081812fc14610148575b600080fd5b610114600480360381019061010f9190611c4e565b610330565b6040516101219190612453565b60405180910390f35b610132610412565b60405161013f919061246e565b60405180910390f35b610162600480360381019061015d9190611ce1565b6104a4565b60405161016f91906123ec565b60405180910390f35b610192600480360381019061018d9190611c12565b610529565b005b6101ae60048036038101906101a99190611b0c565b610641565b005b6101ca60048036038101906101c59190611ca0565b6106a1565b6040516101d79190612690565b60405180910390f35b6101fa60048036038101906101f59190611b0c565b6106de565b005b61021660048036038101906102119190611ce1565b6106fe565b60405161022391906123ec565b60405180910390f35b61024660048036038101906102419190611aa7565b6107b0565b6040516102539190612690565b60405180910390f35b610264610868565b604051610271919061246e565b60405180910390f35b610294600480360381019061028f9190611bd6565b6108fa565b005b6102b060048036038101906102ab9190611b5b565b610a7b565b005b6102cc60048036038101906102c79190611ce1565b610add565b6040516102d9919061246e565b60405180910390f35b6102ea610c2f565b6040516102f79190612690565b60405180910390f35b61031a60048036038101906103159190611ad0565b610c35565b6040516103279190612453565b60405180910390f35b60007f80ac58cd000000000000000000000000000000000000000000000000000000007bffffffffffffffffffffffffffffffffffffffffffffffffffffffff1916827bffffffffffffffffffffffffffffffffffffffffffffffffffffffff191614806103fb57507f5b5e139f000000000000000000000000000000000000000000000000000000007bffffffffffffffffffffffffffffffffffffffffffffffffffffffff1916827bffffffffffffffffffffffffffffffffffffffffffffffffffffffff1916145b8061040b575061040a82610cc9565b5b9050919050565b606060008054610421906128f0565b80601f016020809104026020016040519081016040528092919081815260200182805461044d906128f0565b801561049a5780601f1061046f5761010080835404028352916020019161049a565b820191906000526020600020905b81548152906001019060200180831161047d57829003601f168201915b5050505050905090565b60006104af82610d33565b6104ee576040517f08c379a00000000000000000000000000000000000000000000000000000000081526004016104e5906125f0565b60405180910390fd5b6004600083815260200190815260200160002060009054906101000a900473ffffffffffffffffffffffffffffffffffffffff169050919050565b6000610534826106fe565b90508073ffffffffffffffffffffffffffffffffffffffff168373ffffffffffffffffffffffffffffffffffffffff1614156105a5576040517f08c379a000000000000000000000000000000000000000000000000000000000815260040161059c90612650565b60405180910390fd5b8073ffffffffffffffffffffffffffffffffffffffff166105c4610d9f565b73ffffffffffffffffffffffffffffffffffffffff1614806105f357506105f2816105ed610d9f565b610c35565b5b610632576040517f08c379a000000000000000000000000000000000000000000000000000000000815260040161062990612530565b60405180910390fd5b61063c8383610da7565b505050565b61065261064c610d9f565b82610e60565b610691576040517f08c379a000000000000000000000000000000000000000000000000000000000815260040161068890612670565b60405180910390fd5b61069c838383610f3e565b505050565b60008060075490506106b3338261119a565b6106bd81846111b8565b600760008154809291906106d090612922565b919050555080915050919050565b6106f983838360405180602001604052806000815250610a7b565b505050565b6000806002600084815260200190815260200160002060009054906101000a900473ffffffffffffffffffffffffffffffffffffffff169050600073ffffffffffffffffffffffffffffffffffffffff168173ffffffffffffffffffffffffffffffffffffffff1614156107a7576040517f08c379a000000000000000000000000000000000000000000000000000000000815260040161079e90612570565b60405180910390fd5b80915050919050565b60008073ffffffffffffffffffffffffffffffffffffffff168273ffffffffffffffffffffffffffffffffffffffff161415610821576040517f08c379a000000000000000000000000000000000000000000000000000000000815260040161081890612550565b60405180910390fd5b600360008373ffffffffffffffffffffffffffffffffffffffff1673ffffffffffffffffffffffffffffffffffffffff168152602001908152602001600020549050919050565b606060018054610877906128f0565b80601f01602080910402602001604051908101604052809291908181526020018280546108a3906128f0565b80156108f05780601f106108c5576101008083540402835291602001916108f0565b820191906000526020600020905b8154815290600101906020018083116108d357829003601f168201915b5050505050905090565b610902610d9f565b73ffffffffffffffffffffffffffffffffffffffff168273ffffffffffffffffffffffffffffffffffffffff161415610970576040517f08c379a0000000000000000000000000000000000000000000000000000000008152600401610967906124f0565b60405180910390fd5b806005600061097d610d9f565b73ffffffffffffffffffffffffffffffffffffffff1673ffffffffffffffffffffffffffffffffffffffff16815260200190815260200160002060008473ffffffffffffffffffffffffffffffffffffffff1673ffffffffffffffffffffffffffffffffffffffff16815260200190815260200160002060006101000a81548160ff0219169083151502179055508173ffffffffffffffffffffffffffffffffffffffff16610a2a610d9f565b73ffffffffffffffffffffffffffffffffffffffff167f17307eab39ab6107e8899845ad3d59bd9653f200f220920489ca2b5937696c3183604051610a6f9190612453565b60405180910390a35050565b610a8c610a86610d9f565b83610e60565b610acb576040517f08c379a0000000000000000000000000000000000000000000000000000000008152600401610ac290612670565b60405180910390fd5b610ad78484848461122c565b50505050565b6060610ae882610d33565b610b27576040517f08c379a0000000000000000000000000000000000000000000000000000000008152600401610b1e906125d0565b60405180910390fd5b6000600660008481526020019081526020016000208054610b47906128f0565b80601f0160208091040260200160405190810160405280929190818152602001828054610b73906128f0565b8015610bc05780601f10610b9557610100808354040283529160200191610bc0565b820191906000526020600020905b815481529060010190602001808311610ba357829003601f168201915b505050505090506000610bd1611288565b9050600081511415610be7578192505050610c2a565b600082511115610c1c578082604051602001610c049291906123c8565b60405160208183030381529060405292505050610c2a565b610c258461129f565b925050505b919050565b60075481565b6000600560008473ffffffffffffffffffffffffffffffffffffffff1673ffffffffffffffffffffffffffffffffffffffff16815260200190815260200160002060008373ffffffffffffffffffffffffffffffffffffffff1673ffffffffffffffffffffffffffffffffffffffff16815260200190815260200160002060009054906101000a900460ff16905092915050565b60007f01ffc9a7000000000000000000000000000000000000000000000000000000007bffffffffffffffffffffffffffffffffffffffffffffffffffffffff1916827bffffffffffffffffffffffffffffffffffffffffffffffffffffffff1916149050919050565b60008073ffffffffffffffffffffffffffffffffffffffff166002600084815260200190815260200160002060009054906101000a900473ffffffffffffffffffffffffffffffffffffffff1673ffffffffffffffffffffffffffffffffffffffff1614159050919050565b600033905090565b816004600083815260200190815260200160002060006101000a81548173ffffffffffffffffffffffffffffffffffffffff021916908373ffffffffffffffffffffffffffffffffffffffff160217905550808273ffffffffffffffffffffffffffffffffffffffff16610e1a836106fe565b73ffffffffffffffffffffffffffffffffffffffff167f8c5be1e5ebec7d5bd14f71427d1e84f3dd0314c0f7b2291e5b200ac8c7c3b92560405160405180910390a45050565b6000610e6b82610d33565b610eaa576040517f08c379a0000000000000000000000000000000000000000000000000000000008152600401610ea190612510565b60405180910390fd5b6000610eb5836106fe565b90508073ffffffffffffffffffffffffffffffffffffffff168473ffffffffffffffffffffffffffffffffffffffff161480610f2457508373ffffffffffffffffffffffffffffffffffffffff16610f0c846104a4565b73ffffffffffffffffffffffffffffffffffffffff16145b80610f355750610f348185610c35565b5b91505092915050565b8273ffffffffffffffffffffffffffffffffffffffff16610f5e826106fe565b73ffffffffffffffffffffffffffffffffffffffff1614610fb4576040517f08c379a0000000000000000000000000000000000000000000000000000000008152600401610fab90612610565b60405180910390fd5b600073ffffffffffffffffffffffffffffffffffffffff168273ffffffffffffffffffffffffffffffffffffffff161415611024576040517f08c379a000000000000000000000000000000000000000000000000000000000815260040161101b906124d0565b60405180910390fd5b61102f838383611346565b61103a600082610da7565b6001600360008573ffffffffffffffffffffffffffffffffffffffff1673ffffffffffffffffffffffffffffffffffffffff168152602001908152602001600020600082825461108a9190612806565b925050819055506001600360008473ffffffffffffffffffffffffffffffffffffffff1673ffffffffffffffffffffffffffffffffffffffff16815260200190815260200160002060008282546110e1919061277f565b92505081905550816002600083815260200190815260200160002060006101000a81548173ffffffffffffffffffffffffffffffffffffffff021916908373ffffffffffffffffffffffffffffffffffffffff160217905550808273ffffffffffffffffffffffffffffffffffffffff168473ffffffffffffffffffffffffffffffffffffffff167fddf252ad1be2c89b69c2b068fc378daa952ba7f163c4a11628f55a4df523b3ef60405160405180910390a4505050565b6111b482826040518060200160405280600081525061134b565b5050565b6111c182610d33565b611200576040517f08c379a00000000000000000000000000000000000000000000000000000000081526004016111f790612590565b60405180910390fd5b806006600084815260200190815260200160002090805190602001906112279291906118cb565b505050565b611237848484610f3e565b611243848484846113a6565b611282576040517f08c379a000000000000000000000000000000000000000000000000000000000815260040161127990612490565b60405180910390fd5b50505050565b606060405180602001604052806000815250905090565b60606112aa82610d33565b6112e9576040517f08c379a00000000000000000000000000000000000000000000000000000000081526004016112e090612630565b60405180910390fd5b60006112f3611288565b90506000815111611313576040518060200160405280600081525061133e565b8061131d8461153d565b60405160200161132e9291906123c8565b6040516020818303038152906040525b915050919050565b505050565b61135583836116ea565b61136260008484846113a6565b6113a1576040517f08c379a000000000000000000000000000000000000000000000000000000000815260040161139890612490565b60405180910390fd5b505050565b60006113c78473ffffffffffffffffffffffffffffffffffffffff166118b8565b15611530578373ffffffffffffffffffffffffffffffffffffffff1663150b7a026113f0610d9f565b8786866040518563ffffffff1660e01b81526004016114129493929190612407565b602060405180830381600087803b15801561142c57600080fd5b505af192505050801561145d57506040513d601f19601f8201168201806040525081019061145a9190611c77565b60015b6114e0573d806000811461148d576040519150601f19603f3d011682016040523d82523d6000602084013e611492565b606091505b506000815114156114d8576040517f08c379a00000000000000000000000000000000000000000000000000000000081526004016114cf90612490565b60405180910390fd5b805181602001fd5b63150b7a0260e01b7bffffffffffffffffffffffffffffffffffffffffffffffffffffffff1916817bffffffffffffffffffffffffffffffffffffffffffffffffffffffff191614915050611535565b600190505b949350505050565b60606000821415611585576040518060400160405280600181526020017f300000000000000000000000000000000000000000000000000000000000000081525090506116e5565b600082905060005b600082146115b75780806115a090612922565b915050600a826115b091906127d5565b915061158d565b60008167ffffffffffffffff8111156115f9577f4e487b7100000000000000000000000000000000000000000000000000000000600052604160045260246000fd5b6040519080825280601f01601f19166020018201604052801561162b5781602001600182028036833780820191505090505b5090505b600085146116de576001826116449190612806565b9150600a85611653919061296b565b603061165f919061277f565b60f81b81838151811061169b577f4e487b7100000000000000000000000000000000000000000000000000000000600052603260045260246000fd5b60200101907effffffffffffffffffffffffffffffffffffffffffffffffffffffffffffff1916908160001a905350600a856116d791906127d5565b945061162f565b8093505050505b919050565b600073ffffffffffffffffffffffffffffffffffffffff168273ffffffffffffffffffffffffffffffffffffffff16141561175a576040517f08c379a0000000000000000000000000000000000000000000000000000000008152600401611751906125b0565b60405180910390fd5b61176381610d33565b156117a3576040517f08c379a000000000000000000000000000000000000000000000000000000000815260040161179a906124b0565b60405180910390fd5b6117af60008383611346565b6001600360008473ffffffffffffffffffffffffffffffffffffffff1673ffffffffffffffffffffffffffffffffffffffff16815260200190815260200160002060008282546117ff919061277f565b92505081905550816002600083815260200190815260200160002060006101000a81548173ffffffffffffffffffffffffffffffffffffffff021916908373ffffffffffffffffffffffffffffffffffffffff160217905550808273ffffffffffffffffffffffffffffffffffffffff16600073ffffffffffffffffffffffffffffffffffffffff167fddf252ad1be2c89b69c2b068fc378daa952ba7f163c4a11628f55a4df523b3ef60405160405180910390a45050565b600080823b905060008111915050919050565b8280546118d7906128f0565b90600052602060002090601f0160209004810192826118f95760008555611940565b82601f1061191257805160ff1916838001178555611940565b82800160010185558215611940579182015b8281111561193f578251825591602001919060010190611924565b5b50905061194d9190611951565b5090565b5b8082111561196a576000816000905550600101611952565b5090565b600061198161197c846126dc565b6126ab565b90508281526020810184848401111561199957600080fd5b6119a48482856128ae565b509392505050565b60006119bf6119ba8461270c565b6126ab565b9050828152602081018484840111156119d757600080fd5b6119e28482856128ae565b509392505050565b6000813590506119f981612a69565b92915050565b600081359050611a0e81612a80565b92915050565b600081359050611a2381612a97565b92915050565b600081519050611a3881612a97565b92915050565b600082601f830112611a4f57600080fd5b8135611a5f84826020860161196e565b91505092915050565b600082601f830112611a7957600080fd5b8135611a898482602086016119ac565b91505092915050565b600081359050611aa181612aae565b92915050565b600060208284031215611ab957600080fd5b6000611ac7848285016119ea565b91505092915050565b60008060408385031215611ae357600080fd5b6000611af1858286016119ea565b9250506020611b02858286016119ea565b9150509250929050565b600080600060608486031215611b2157600080fd5b6000611b2f868287016119ea565b9350506020611b40868287016119ea565b9250506040611b5186828701611a92565b9150509250925092565b60008060008060808587031215611b7157600080fd5b6000611b7f878288016119ea565b9450506020611b90878288016119ea565b9350506040611ba187828801611a92565b925050606085013567ffffffffffffffff811115611bbe57600080fd5b611bca87828801611a3e565b91505092959194509250565b60008060408385031215611be957600080fd5b6000611bf7858286016119ea565b9250506020611c08858286016119ff565b9150509250929050565b60008060408385031215611c2557600080fd5b6000611c33858286016119ea565b9250506020611c4485828601611a92565b9150509250929050565b600060208284031215611c6057600080fd5b6000611c6e84828501611a14565b91505092915050565b600060208284031215611c8957600080fd5b6000611c9784828501611a29565b91505092915050565b600060208284031215611cb257600080fd5b600082013567ffffffffffffffff811115611ccc57600080fd5b611cd884828501611a68565b91505092915050565b600060208284031215611cf357600080fd5b6000611d0184828501611a92565b91505092915050565b611d138161283a565b82525050565b611d228161284c565b82525050565b6000611d338261273c565b611d3d8185612752565b9350611d4d8185602086016128bd565b611d5681612a58565b840191505092915050565b6000611d6c82612747565b611d768185612763565b9350611d868185602086016128bd565b611d8f81612a58565b840191505092915050565b6000611da582612747565b611daf8185612774565b9350611dbf8185602086016128bd565b80840191505092915050565b6000611dd8603283612763565b91507f4552433732313a207472616e7366657220746f206e6f6e20455243373231526560008301527f63656976657220696d706c656d656e74657200000000000000000000000000006020830152604082019050919050565b6000611e3e601c83612763565b91507f4552433732313a20746f6b656e20616c7265616479206d696e746564000000006000830152602082019050919050565b6000611e7e602483612763565b91507f4552433732313a207472616e7366657220746f20746865207a65726f2061646460008301527f72657373000000000000000000000000000000000000000000000000000000006020830152604082019050919050565b6000611ee4601983612763565b91507f4552433732313a20617070726f766520746f2063616c6c6572000000000000006000830152602082019050919050565b6000611f24602c83612763565b91507f4552433732313a206f70657261746f7220717565727920666f72206e6f6e657860008301527f697374656e7420746f6b656e00000000000000000000000000000000000000006020830152604082019050919050565b6000611f8a603883612763565b91507f4552433732313a20617070726f76652063616c6c6572206973206e6f74206f7760008301527f6e6572206e6f7220617070726f76656420666f7220616c6c00000000000000006020830152604082019050919050565b6000611ff0602a83612763565b91507f4552433732313a2062616c616e636520717565727920666f7220746865207a6560008301527f726f2061646472657373000000000000000000000000000000000000000000006020830152604082019050919050565b6000612056602983612763565b91507f4552433732313a206f776e657220717565727920666f72206e6f6e657869737460008301527f656e7420746f6b656e00000000000000000000000000000000000000000000006020830152604082019050919050565b60006120bc602e83612763565b91507f45524337323155524953746f726167653a2055524920736574206f66206e6f6e60008301527f6578697374656e7420746f6b656e0000000000000000000000000000000000006020830152604082019050919050565b6000612122602083612763565b91507f4552433732313a206d696e7420746f20746865207a65726f20616464726573736000830152602082019050919050565b6000612162603183612763565b91507f45524337323155524953746f726167653a2055524920717565727920666f722060008301527f6e6f6e6578697374656e7420746f6b656e0000000000000000000000000000006020830152604082019050919050565b60006121c8602c83612763565b91507f4552433732313a20617070726f76656420717565727920666f72206e6f6e657860008301527f697374656e7420746f6b656e00000000000000000000000000000000000000006020830152604082019050919050565b600061222e602983612763565b91507f4552433732313a207472616e73666572206f6620746f6b656e2074686174206960008301527f73206e6f74206f776e00000000000000000000000000000000000000000000006020830152604082019050919050565b6000612294602f83612763565b91507f4552433732314d657461646174613a2055524920717565727920666f72206e6f60008301527f6e6578697374656e7420746f6b656e00000000000000000000000000000000006020830152604082019050919050565b60006122fa602183612763565b91507f4552433732313a20617070726f76616c20746f2063757272656e74206f776e6560008301527f72000000000000000000000000000000000000000000000000000000000000006020830152604082019050919050565b6000612360603183612763565b91507f4552433732313a207472616e736665722063616c6c6572206973206e6f74206f60008301527f776e6572206e6f7220617070726f7665640000000000000000000000000000006020830152604082019050919050565b6123c2816128a4565b82525050565b60006123d48285611d9a565b91506123e08284611d9a565b91508190509392505050565b60006020820190506124016000830184611d0a565b92915050565b600060808201905061241c6000830187611d0a565b6124296020830186611d0a565b61243660408301856123b9565b81810360608301526124488184611d28565b905095945050505050565b60006020820190506124686000830184611d19565b92915050565b600060208201905081810360008301526124888184611d61565b905092915050565b600060208201905081810360008301526124a981611dcb565b9050919050565b600060208201905081810360008301526124c981611e31565b9050919050565b600060208201905081810360008301526124e981611e71565b9050919050565b6000602082019050818103600083015261250981611ed7565b9050919050565b6000602082019050818103600083015261252981611f17565b9050919050565b6000602082019050818103600083015261254981611f7d565b9050919050565b6000602082019050818103600083015261256981611fe3565b9050919050565b6000602082019050818103600083015261258981612049565b9050919050565b600060208201905081810360008301526125a9816120af565b9050919050565b600060208201905081810360008301526125c981612115565b9050919050565b600060208201905081810360008301526125e981612155565b9050919050565b60006020820190508181036000830152612609816121bb565b9050919050565b6000602082019050818103600083015261262981612221565b9050919050565b6000602082019050818103600083015261264981612287565b9050919050565b60006020820190508181036000830152612669816122ed565b9050919050565b6000602082019050818103600083015261268981612353565b9050919050565b60006020820190506126a560008301846123b9565b92915050565b6000604051905081810181811067ffffffffffffffff821117156126d2576126d1612a29565b5b8060405250919050565b600067ffffffffffffffff8211156126f7576126f6612a29565b5b601f19601f8301169050602081019050919050565b600067ffffffffffffffff82111561272757612726612a29565b5b601f19601f8301169050602081019050919050565b600081519050919050565b600081519050919050565b600082825260208201905092915050565b600082825260208201905092915050565b600081905092915050565b600061278a826128a4565b9150612795836128a4565b9250827fffffffffffffffffffffffffffffffffffffffffffffffffffffffffffffffff038211156127ca576127c961299c565b5b828201905092915050565b60006127e0826128a4565b91506127eb836128a4565b9250826127fb576127fa6129cb565b5b828204905092915050565b6000612811826128a4565b915061281c836128a4565b92508282101561282f5761282e61299c565b5b828203905092915050565b600061284582612884565b9050919050565b60008115159050919050565b60007fffffffff0000000000000000000000000000000000000000000000000000000082169050919050565b600073ffffffffffffffffffffffffffffffffffffffff82169050919050565b6000819050919050565b82818337600083830152505050565b60005b838110156128db5780820151818401526020810190506128c0565b838111156128ea576000848401525b50505050565b6000600282049050600182168061290857607f821691505b6020821081141561291c5761291b6129fa565b5b50919050565b600061292d826128a4565b91507fffffffffffffffffffffffffffffffffffffffffffffffffffffffffffffffff8214156129605761295f61299c565b5b600182019050919050565b6000612976826128a4565b9150612981836128a4565b925082612991576129906129cb565b5b828206905092915050565b7f4e487b7100000000000000000000000000000000000000000000000000000000600052601160045260246000fd5b7f4e487b7100000000000000000000000000000000000000000000000000000000600052601260045260246000fd5b7f4e487b7100000000000000000000000000000000000000000000000000000000600052602260045260246000fd5b7f4e487b7100000000000000000000000000000000000000000000000000000000600052604160045260246000fd5b6000601f19601f8301169050919050565b612a728161283a565b8114612a7d57600080fd5b50565b612a898161284c565b8114612a9457600080fd5b50565b612aa081612858565b8114612aab57600080fd5b50565b612ab7816128a4565b8114612ac257600080fd5b5056fea2646970667358221220aeba1c07b8e0490cd22fe1b9bc7a67426eebf6519ee5674e773027701c7edde464736f6c63430008000033",
  "immutableReferences": {},
  "source": "// SPDX-License-Identifier: MIT\r\npragma solidity ^0.8.0;\r\n\r\nimport \"@openzeppelin/contracts/token/ERC721/extensions/ERC721URIStorage.sol\";\r\n\r\ncontract SimpleCollectible is ERC721URIStorage {\r\n\tuint256 public tokenCounter;\r\n\r\n\tconstructor () ERC721 (\"Dogie\", \"DOG\") {\r\n\t\ttokenCounter = 0;\r\n\t}\r\n\t\r\n\tfunction createCollectible(string memory tokenURI) public returns(uint256) {\r\n\t\tuint256 newItemId = tokenCounter;\r\n\t\t_safeMint(msg.sender, newItemId);\r\n\t\t_setTokenURI(newItemId, tokenURI);\r\n\t\ttokenCounter++;\r\n\t\treturn newItemId;\r\n\t}\r\n}",
  "sourcePath": "C:/Users/petari/Desktop/coding project folder/solidity/nft_build/contracts/MyNft.sol",
  "compiler": {
    "name": "solc",
    "version": "0.8.0+commit.c7dfd78e.Emscripten.clang"
  },
  "schemaVersion": "3.2.3",
  "updatedAt": "2021-11-20T14:47:21.244Z",
  "devdoc": {
    "kind": "dev",
    "methods": {
      "approve(address,uint256)": {
        "details": "See {IERC721-approve}."
      },
      "balanceOf(address)": {
        "details": "See {IERC721-balanceOf}."
      },
      "getApproved(uint256)": {
        "details": "See {IERC721-getApproved}."
      },
      "isApprovedForAll(address,address)": {
        "details": "See {IERC721-isApprovedForAll}."
      },
      "name()": {
        "details": "See {IERC721Metadata-name}."
      },
      "ownerOf(uint256)": {
        "details": "See {IERC721-ownerOf}."
      },
      "safeTransferFrom(address,address,uint256)": {
        "details": "See {IERC721-safeTransferFrom}."
      },
      "safeTransferFrom(address,address,uint256,bytes)": {
        "details": "See {IERC721-safeTransferFrom}."
      },
      "setApprovalForAll(address,bool)": {
        "details": "See {IERC721-setApprovalForAll}."
      },
      "supportsInterface(bytes4)": {
        "details": "See {IERC165-supportsInterface}."
      },
      "symbol()": {
        "details": "See {IERC721Metadata-symbol}."
      },
      "tokenURI(uint256)": {
        "details": "See {IERC721Metadata-tokenURI}."
      },
      "transferFrom(address,address,uint256)": {
        "details": "See {IERC721-transferFrom}."
      }
    },
    "version": 1
  },
  "userdoc": {
    "kind": "user",
    "methods": {},
    "version": 1
  }
}