{
  "contractName": "SVGNFT",
  "abi": [
    {
      "inputs": [],
      "stateMutability": "nonpayable",
      "type": "constructor"
    },
    {
      "anonymous": false,
      "inputs": [
        {
          "indexed": true,
          "internalType": "address",
          "name": "owner",
          "type": "address"
        },
        {
          "indexed": true,
          "internalType": "address",
          "name": "approved",
          "type": "address"
        },
        {
          "indexed": true,
          "internalType": "uint256",
          "name": "tokenId",
          "type": "uint256"
        }
      ],
      "name": "Approval",
      "type": "event"
    },
    {
      "anonymous": false,
      "inputs": [
        {
          "indexed": true,
          "internalType": "address",
          "name": "owner",
          "type": "address"
        },
        {
          "indexed": true,
          "internalType": "address",
          "name": "operator",
          "type": "address"
        },
        {
          "indexed": false,
          "internalType": "bool",
          "name": "approved",
          "type": "bool"
        }
      ],
      "name": "ApprovalForAll",
      "type": "event"
    },
    {
      "anonymous": false,
      "inputs": [
        {
          "indexed": true,
          "internalType": "uint256",
          "name": "tokenId",
          "type": "uint256"
        },
        {
          "indexed": false,
          "internalType": "string",
          "name": "tokenURI",
          "type": "string"
        }
      ],
      "name": "CreatedSVGNFT",
      "type": "event"
    },
    {
      "anonymous": false,
      "inputs": [
        {
          "indexed": true,
          "internalType": "address",
          "name": "from",
          "type": "address"
        },
        {
          "indexed": true,
          "internalType": "address",
          "name": "to",
          "type": "address"
        },
        {
          "indexed": true,
          "internalType": "uint256",
          "name": "tokenId",
          "type": "uint256"
        }
      ],
      "name": "Transfer",
      "type": "event"
    },
    {
      "inputs": [
        {
          "internalType": "address",
          "name": "to",
          "type": "address"
        },
        {
          "internalType": "uint256",
          "name": "tokenId",
          "type": "uint256"
        }
      ],
      "name": "approve",
      "outputs": [],
      "stateMutability": "nonpayable",
      "type": "function"
    },
    {
      "inputs": [
        {
          "internalType": "address",
          "name": "owner",
          "type": "address"
        }
      ],
      "name": "balanceOf",
      "outputs": [
        {
          "internalType": "uint256",
          "name": "",
          "type": "uint256"
        }
      ],
      "stateMutability": "view",
      "type": "function",
      "constant": true
    },
    {
      "inputs": [
        {
          "internalType": "uint256",
          "name": "tokenId",
          "type": "uint256"
        }
      ],
      "name": "getApproved",
      "outputs": [
        {
          "internalType": "address",
          "name": "",
          "type": "address"
        }
      ],
      "stateMutability": "view",
      "type": "function",
      "constant": true
    },
    {
      "inputs": [
        {
          "internalType": "address",
          "name": "owner",
          "type": "address"
        },
        {
          "internalType": "address",
          "name": "operator",
          "type": "address"
        }
      ],
      "name": "isApprovedForAll",
      "outputs": [
        {
          "internalType": "bool",
          "name": "",
          "type": "bool"
        }
      ],
      "stateMutability": "view",
      "type": "function",
      "constant": true
    },
    {
      "inputs": [],
      "name": "name",
      "outputs": [
        {
          "internalType": "string",
          "name": "",
          "type": "string"
        }
      ],
      "stateMutability": "view",
      "type": "function",
      "constant": true
    },
    {
      "inputs": [
        {
          "internalType": "uint256",
          "name": "tokenId",
          "type": "uint256"
        }
      ],
      "name": "ownerOf",
      "outputs": [
        {
          "internalType": "address",
          "name": "",
          "type": "address"
        }
      ],
      "stateMutability": "view",
      "type": "function",
      "constant": true
    },
    {
      "inputs": [
        {
          "internalType": "address",
          "name": "from",
          "type": "address"
        },
        {
          "internalType": "address",
          "name": "to",
          "type": "address"
        },
        {
          "internalType": "uint256",
          "name": "tokenId",
          "type": "uint256"
        }
      ],
      "name": "safeTransferFrom",
      "outputs": [],
      "stateMutability": "nonpayable",
      "type": "function"
    },
    {
      "inputs": [
        {
          "internalType": "address",
          "name": "from",
          "type": "address"
        },
        {
          "internalType": "address",
          "name": "to",
          "type": "address"
        },
        {
          "internalType": "uint256",
          "name": "tokenId",
          "type": "uint256"
        },
        {
          "internalType": "bytes",
          "name": "_data",
          "type": "bytes"
        }
      ],
      "name": "safeTransferFrom",
      "outputs": [],
      "stateMutability": "nonpayable",
      "type": "function"
    },
    {
      "inputs": [
        {
          "internalType": "address",
          "name": "operator",
          "type": "address"
        },
        {
          "internalType": "bool",
          "name": "approved",
          "type": "bool"
        }
      ],
      "name": "setApprovalForAll",
      "outputs": [],
      "stateMutability": "nonpayable",
      "type": "function"
    },
    {
      "inputs": [
        {
          "internalType": "bytes4",
          "name": "interfaceId",
          "type": "bytes4"
        }
      ],
      "name": "supportsInterface",
      "outputs": [
        {
          "internalType": "bool",
          "name": "",
          "type": "bool"
        }
      ],
      "stateMutability": "view",
      "type": "function",
      "constant": true
    },
    {
      "inputs": [],
      "name": "symbol",
      "outputs": [
        {
          "internalType": "string",
          "name": "",
          "type": "string"
        }
      ],
      "stateMutability": "view",
      "type": "function",
      "constant": true
    },
    {
      "inputs": [],
      "name": "tokenCounter",
      "outputs": [
        {
          "internalType": "uint256",
          "name": "",
          "type": "uint256"
        }
      ],
      "stateMutability": "view",
      "type": "function",
      "constant": true
    },
    {
      "inputs": [
        {
          "internalType": "uint256",
          "name": "tokenId",
          "type": "uint256"
        }
      ],
      "name": "tokenURI",
      "outputs": [
        {
          "internalType": "string",
          "name": "",
          "type": "string"
        }
      ],
      "stateMutability": "view",
      "type": "function",
      "constant": true
    },
    {
      "inputs": [
        {
          "internalType": "address",
          "name": "from",
          "type": "address"
        },
        {
          "internalType": "address",
          "name": "to",
          "type": "address"
        },
        {
          "internalType": "uint256",
          "name": "tokenId",
          "type": "uint256"
        }
      ],
      "name": "transferFrom",
      "outputs": [],
      "stateMutability": "nonpayable",
      "type": "function"
    },
    {
      "inputs": [
        {
          "internalType": "address",
          "name": "",
          "type": "address"
        }
      ],
      "name": "uriOwner",
      "outputs": [
        {
          "internalType": "string",
          "name": "",
          "type": "string"
        }
      ],
      "stateMutability": "view",
      "type": "function",
      "constant": true
    },
    {
      "inputs": [
        {
          "internalType": "string",
          "name": "_svg",
          "type": "string"
        }
      ],
      "name": "create",
      "outputs": [],
      "stateMutability": "nonpayable",
      "type": "function"
    },
    {
      "inputs": [
        {
          "internalType": "string",
          "name": "_svg",
          "type": "string"
        }
      ],
      "name": "svgToImageURI",
      "outputs": [
        {
          "internalType": "string",
          "name": "",
          "type": "string"
        }
      ],
      "stateMutability": "pure",
      "type": "function",
      "constant": true
    },
    {
      "inputs": [
        {
          "internalType": "address",
          "name": "_from",
          "type": "address"
        },
        {
          "internalType": "address",
          "name": "_to",
          "type": "address"
        },
        {
          "internalType": "uint256",
          "name": "_tokenId",
          "type": "uint256"
        }
      ],
      "name": "transferer",
      "outputs": [],
      "stateMutability": "nonpayable",
      "type": "function"
    },
    {
      "inputs": [
        {
          "internalType": "string",
          "name": "_imageURI",
          "type": "string"
        }
      ],
      "name": "formatTokenURI",
      "outputs": [
        {
          "internalType": "string",
          "name": "",
          "type": "string"
        }
      ],
      "stateMutability": "pure",
      "type": "function",
      "constant": true
    }
  ],
  "bytecode": "0x60806040523480156200001157600080fd5b506040518060400160405280600781526020017f535647204e4654000000000000000000000000000000000000000000000000008152506040518060400160405280600681526020017f7376674e46540000000000000000000000000000000000000000000000000000815250816000908051906020019062000096929190620000c0565b508060019080519060200190620000af929190620000c0565b5050506000600781905550620001d5565b828054620000ce9062000170565b90600052602060002090601f016020900481019282620000f257600085556200013e565b82601f106200010d57805160ff19168380011785556200013e565b828001600101855582156200013e579182015b828111156200013d57825182559160200191906001019062000120565b5b5090506200014d919062000151565b5090565b5b808211156200016c57600081600090555060010162000152565b5090565b600060028204905060018216806200018957607f821691505b60208210811415620001a0576200019f620001a6565b5b50919050565b7f4e487b7100000000000000000000000000000000000000000000000000000000600052602260045260246000fd5b61320180620001e56000396000f3fe608060405234801561001057600080fd5b50600436106101215760003560e01c806370a08231116100ad578063b6a46b3b11610071578063b6a46b3b1461033e578063b88d4fde1461035a578063c87b56dd14610376578063d082e381146103a6578063e985e9c5146103c457610121565b806370a082311461027457806371aee193146102a457806395d89b41146102d4578063a22cb465146102f2578063acaf0e961461030e57610121565b806323b872dd116100f457806323b872dd146101c057806330d871c6146101dc5780633c6d0a831461020c57806342842e0e146102285780636352211e1461024457610121565b806301ffc9a71461012657806306fdde0314610156578063081812fc14610174578063095ea7b3146101a4575b600080fd5b610140600480360381019061013b91906120b2565b6103f4565b60405161014d9190612abf565b60405180910390f35b61015e6104d6565b60405161016b9190612ada565b60405180910390f35b61018e60048036038101906101899190612145565b610568565b60405161019b9190612a58565b60405180910390f35b6101be60048036038101906101b99190612076565b6105ed565b005b6101da60048036038101906101d59190611f70565b610705565b005b6101f660048036038101906101f19190612104565b610765565b6040516102039190612ada565b60405180910390f35b61022660048036038101906102219190611f70565b6107fe565b005b610242600480360381019061023d9190611f70565b61081e565b005b61025e60048036038101906102599190612145565b61083e565b60405161026b9190612a58565b60405180910390f35b61028e60048036038101906102899190611f0b565b6108f0565b60405161029b9190612cfc565b60405180910390f35b6102be60048036038101906102b99190612104565b6109a8565b6040516102cb9190612ada565b60405180910390f35b6102dc6109f8565b6040516102e99190612ada565b60405180910390f35b61030c6004803603810190610307919061203a565b610a8a565b005b61032860048036038101906103239190611f0b565b610c0b565b6040516103359190612ada565b60405180910390f35b61035860048036038101906103539190612104565b610cab565b005b610374600480360381019061036f9190611fbf565b610d34565b005b610390600480360381019061038b9190612145565b610d96565b60405161039d9190612ada565b60405180910390f35b6103ae610ee8565b6040516103bb9190612cfc565b60405180910390f35b6103de60048036038101906103d99190611f34565b610eee565b6040516103eb9190612abf565b60405180910390f35b60007f80ac58cd000000000000000000000000000000000000000000000000000000007bffffffffffffffffffffffffffffffffffffffffffffffffffffffff1916827bffffffffffffffffffffffffffffffffffffffffffffffffffffffff191614806104bf57507f5b5e139f000000000000000000000000000000000000000000000000000000007bffffffffffffffffffffffffffffffffffffffffffffffffffffffff1916827bffffffffffffffffffffffffffffffffffffffffffffffffffffffff1916145b806104cf57506104ce82610f82565b5b9050919050565b6060600080546104e590612fb6565b80601f016020809104026020016040519081016040528092919081815260200182805461051190612fb6565b801561055e5780601f106105335761010080835404028352916020019161055e565b820191906000526020600020905b81548152906001019060200180831161054157829003601f168201915b5050505050905090565b600061057382610fec565b6105b2576040517f08c379a00000000000000000000000000000000000000000000000000000000081526004016105a990612c5c565b60405180910390fd5b6004600083815260200190815260200160002060009054906101000a900473ffffffffffffffffffffffffffffffffffffffff169050919050565b60006105f88261083e565b90508073ffffffffffffffffffffffffffffffffffffffff168373ffffffffffffffffffffffffffffffffffffffff161415610669576040517f08c379a000000000000000000000000000000000000000000000000000000000815260040161066090612cbc565b60405180910390fd5b8073ffffffffffffffffffffffffffffffffffffffff16610688611058565b73ffffffffffffffffffffffffffffffffffffffff1614806106b757506106b6816106b1611058565b610eee565b5b6106f6576040517f08c379a00000000000000000000000000000000000000000000000000000000081526004016106ed90612b9c565b60405180910390fd5b6107008383611060565b505050565b610716610710611058565b82611119565b610755576040517f08c379a000000000000000000000000000000000000000000000000000000000815260040161074c90612cdc565b60405180910390fd5b6107608383836111f7565b505050565b606060006040518060400160405280601a81526020017f646174613a696d6167652f7376672b786d6c3b6261736536342c000000000000815250905060006107cb846040516020016107b791906129b8565b604051602081830303815290604052611453565b9050600082826040516020016107e29291906129cf565b6040516020818303038152906040529050809350505050919050565b610819838383604051806020016040528060008152506115fe565b505050565b61083983838360405180602001604052806000815250610d34565b505050565b6000806002600084815260200190815260200160002060009054906101000a900473ffffffffffffffffffffffffffffffffffffffff169050600073ffffffffffffffffffffffffffffffffffffffff168173ffffffffffffffffffffffffffffffffffffffff1614156108e7576040517f08c379a00000000000000000000000000000000000000000000000000000000081526004016108de90612bdc565b60405180910390fd5b80915050919050565b60008073ffffffffffffffffffffffffffffffffffffffff168273ffffffffffffffffffffffffffffffffffffffff161415610961576040517f08c379a000000000000000000000000000000000000000000000000000000000815260040161095890612bbc565b60405180910390fd5b600360008373ffffffffffffffffffffffffffffffffffffffff1673ffffffffffffffffffffffffffffffffffffffff168152602001908152602001600020549050919050565b60606109d2826040516020016109be91906129f3565b604051602081830303815290604052611453565b6040516020016109e29190612a36565b6040516020818303038152906040529050919050565b606060018054610a0790612fb6565b80601f0160208091040260200160405190810160405280929190818152602001828054610a3390612fb6565b8015610a805780601f10610a5557610100808354040283529160200191610a80565b820191906000526020600020905b815481529060010190602001808311610a6357829003601f168201915b5050505050905090565b610a92611058565b73ffffffffffffffffffffffffffffffffffffffff168273ffffffffffffffffffffffffffffffffffffffff161415610b00576040517f08c379a0000000000000000000000000000000000000000000000000000000008152600401610af790612b5c565b60405180910390fd5b8060056000610b0d611058565b73ffffffffffffffffffffffffffffffffffffffff1673ffffffffffffffffffffffffffffffffffffffff16815260200190815260200160002060008473ffffffffffffffffffffffffffffffffffffffff1673ffffffffffffffffffffffffffffffffffffffff16815260200190815260200160002060006101000a81548160ff0219169083151502179055508173ffffffffffffffffffffffffffffffffffffffff16610bba611058565b73ffffffffffffffffffffffffffffffffffffffff167f17307eab39ab6107e8899845ad3d59bd9653f200f220920489ca2b5937696c3183604051610bff9190612abf565b60405180910390a35050565b60086020528060005260406000206000915090508054610c2a90612fb6565b80601f0160208091040260200160405190810160405280929190818152602001828054610c5690612fb6565b8015610ca35780601f10610c7857610100808354040283529160200191610ca3565b820191906000526020600020905b815481529060010190602001808311610c8657829003601f168201915b505050505081565b610cb73360075461165a565b6000610cc282610765565b90506000610ccf826109a8565b9050610cdd60075482611678565b6007547ff5acc616aa8ecd00e5d76674d7812f9c3c3571d662c9fba4499deefa6d0be12d82604051610d0f9190612ada565b60405180910390a260076000815480929190610d2a90612fe8565b9190505550505050565b610d45610d3f611058565b83611119565b610d84576040517f08c379a0000000000000000000000000000000000000000000000000000000008152600401610d7b90612cdc565b60405180910390fd5b610d90848484846115fe565b50505050565b6060610da182610fec565b610de0576040517f08c379a0000000000000000000000000000000000000000000000000000000008152600401610dd790612c3c565b60405180910390fd5b6000600660008481526020019081526020016000208054610e0090612fb6565b80601f0160208091040260200160405190810160405280929190818152602001828054610e2c90612fb6565b8015610e795780601f10610e4e57610100808354040283529160200191610e79565b820191906000526020600020905b815481529060010190602001808311610e5c57829003601f168201915b505050505090506000610e8a6116ec565b9050600081511415610ea0578192505050610ee3565b600082511115610ed5578082604051602001610ebd9291906129cf565b60405160208183030381529060405292505050610ee3565b610ede84611703565b925050505b919050565b60075481565b6000600560008473ffffffffffffffffffffffffffffffffffffffff1673ffffffffffffffffffffffffffffffffffffffff16815260200190815260200160002060008373ffffffffffffffffffffffffffffffffffffffff1673ffffffffffffffffffffffffffffffffffffffff16815260200190815260200160002060009054906101000a900460ff16905092915050565b60007f01ffc9a7000000000000000000000000000000000000000000000000000000007bffffffffffffffffffffffffffffffffffffffffffffffffffffffff1916827bffffffffffffffffffffffffffffffffffffffffffffffffffffffff1916149050919050565b60008073ffffffffffffffffffffffffffffffffffffffff166002600084815260200190815260200160002060009054906101000a900473ffffffffffffffffffffffffffffffffffffffff1673ffffffffffffffffffffffffffffffffffffffff1614159050919050565b600033905090565b816004600083815260200190815260200160002060006101000a81548173ffffffffffffffffffffffffffffffffffffffff021916908373ffffffffffffffffffffffffffffffffffffffff160217905550808273ffffffffffffffffffffffffffffffffffffffff166110d38361083e565b73ffffffffffffffffffffffffffffffffffffffff167f8c5be1e5ebec7d5bd14f71427d1e84f3dd0314c0f7b2291e5b200ac8c7c3b92560405160405180910390a45050565b600061112482610fec565b611163576040517f08c379a000000000000000000000000000000000000000000000000000000000815260040161115a90612b7c565b60405180910390fd5b600061116e8361083e565b90508073ffffffffffffffffffffffffffffffffffffffff168473ffffffffffffffffffffffffffffffffffffffff1614806111dd57508373ffffffffffffffffffffffffffffffffffffffff166111c584610568565b73ffffffffffffffffffffffffffffffffffffffff16145b806111ee57506111ed8185610eee565b5b91505092915050565b8273ffffffffffffffffffffffffffffffffffffffff166112178261083e565b73ffffffffffffffffffffffffffffffffffffffff161461126d576040517f08c379a000000000000000000000000000000000000000000000000000000000815260040161126490612c7c565b60405180910390fd5b600073ffffffffffffffffffffffffffffffffffffffff168273ffffffffffffffffffffffffffffffffffffffff1614156112dd576040517f08c379a00000000000000000000000000000000000000000000000000000000081526004016112d490612b3c565b60405180910390fd5b6112e88383836117aa565b6112f3600082611060565b6001600360008573ffffffffffffffffffffffffffffffffffffffff1673ffffffffffffffffffffffffffffffffffffffff16815260200190815260200160002060008282546113439190612ecc565b925050819055506001600360008473ffffffffffffffffffffffffffffffffffffffff1673ffffffffffffffffffffffffffffffffffffffff168152602001908152602001600020600082825461139a9190612deb565b92505081905550816002600083815260200190815260200160002060006101000a81548173ffffffffffffffffffffffffffffffffffffffff021916908373ffffffffffffffffffffffffffffffffffffffff160217905550808273ffffffffffffffffffffffffffffffffffffffff168473ffffffffffffffffffffffffffffffffffffffff167fddf252ad1be2c89b69c2b068fc378daa952ba7f163c4a11628f55a4df523b3ef60405160405180910390a4505050565b6060600082511415611476576040518060200160405280600081525090506115f9565b600060405180606001604052806040815260200161318c60409139905060006003600285516114a59190612deb565b6114af9190612e41565b60046114bb9190612e72565b905060006020826114cc9190612deb565b67ffffffffffffffff81111561150b577f4e487b7100000000000000000000000000000000000000000000000000000000600052604160045260246000fd5b6040519080825280601f01601f19166020018201604052801561153d5781602001600182028036833780820191505090505b509050818152600183018586518101602084015b818310156115b8576003830192508251603f8160121c1685015160f81b8252600182019150603f81600c1c1685015160f81b8252600182019150603f8160061c1685015160f81b8252600182019150603f811685015160f81b825260018201915050611551565b6003895106600181146115d257600281146115e2576115ed565b613d3d60f01b60028303526115ed565b603d60f81b60018303525b50505050508093505050505b919050565b6116098484846111f7565b611615848484846117af565b611654576040517f08c379a000000000000000000000000000000000000000000000000000000000815260040161164b90612afc565b60405180910390fd5b50505050565b611674828260405180602001604052806000815250611946565b5050565b61168182610fec565b6116c0576040517f08c379a00000000000000000000000000000000000000000000000000000000081526004016116b790612bfc565b60405180910390fd5b806006600084815260200190815260200160002090805190602001906116e7929190611d2f565b505050565b606060405180602001604052806000815250905090565b606061170e82610fec565b61174d576040517f08c379a000000000000000000000000000000000000000000000000000000000815260040161174490612c9c565b60405180910390fd5b60006117576116ec565b9050600081511161177757604051806020016040528060008152506117a2565b80611781846119a1565b6040516020016117929291906129cf565b6040516020818303038152906040525b915050919050565b505050565b60006117d08473ffffffffffffffffffffffffffffffffffffffff16611b4e565b15611939578373ffffffffffffffffffffffffffffffffffffffff1663150b7a026117f9611058565b8786866040518563ffffffff1660e01b815260040161181b9493929190612a73565b602060405180830381600087803b15801561183557600080fd5b505af192505050801561186657506040513d601f19601f8201168201806040525081019061186391906120db565b60015b6118e9573d8060008114611896576040519150601f19603f3d011682016040523d82523d6000602084013e61189b565b606091505b506000815114156118e1576040517f08c379a00000000000000000000000000000000000000000000000000000000081526004016118d890612afc565b60405180910390fd5b805181602001fd5b63150b7a0260e01b7bffffffffffffffffffffffffffffffffffffffffffffffffffffffff1916817bffffffffffffffffffffffffffffffffffffffffffffffffffffffff19161491505061193e565b600190505b949350505050565b6119508383611b61565b61195d60008484846117af565b61199c576040517f08c379a000000000000000000000000000000000000000000000000000000000815260040161199390612afc565b60405180910390fd5b505050565b606060008214156119e9576040518060400160405280600181526020017f30000000000000000000000000000000000000000000000000000000000000008152509050611b49565b600082905060005b60008214611a1b578080611a0490612fe8565b915050600a82611a149190612e41565b91506119f1565b60008167ffffffffffffffff811115611a5d577f4e487b7100000000000000000000000000000000000000000000000000000000600052604160045260246000fd5b6040519080825280601f01601f191660200182016040528015611a8f5781602001600182028036833780820191505090505b5090505b60008514611b4257600182611aa89190612ecc565b9150600a85611ab79190613031565b6030611ac39190612deb565b60f81b818381518110611aff577f4e487b7100000000000000000000000000000000000000000000000000000000600052603260045260246000fd5b60200101907effffffffffffffffffffffffffffffffffffffffffffffffffffffffffffff1916908160001a905350600a85611b3b9190612e41565b9450611a93565b8093505050505b919050565b600080823b905060008111915050919050565b600073ffffffffffffffffffffffffffffffffffffffff168273ffffffffffffffffffffffffffffffffffffffff161415611bd1576040517f08c379a0000000000000000000000000000000000000000000000000000000008152600401611bc890612c1c565b60405180910390fd5b611bda81610fec565b15611c1a576040517f08c379a0000000000000000000000000000000000000000000000000000000008152600401611c1190612b1c565b60405180910390fd5b611c26600083836117aa565b6001600360008473ffffffffffffffffffffffffffffffffffffffff1673ffffffffffffffffffffffffffffffffffffffff1681526020019081526020016000206000828254611c769190612deb565b92505081905550816002600083815260200190815260200160002060006101000a81548173ffffffffffffffffffffffffffffffffffffffff021916908373ffffffffffffffffffffffffffffffffffffffff160217905550808273ffffffffffffffffffffffffffffffffffffffff16600073ffffffffffffffffffffffffffffffffffffffff167fddf252ad1be2c89b69c2b068fc378daa952ba7f163c4a11628f55a4df523b3ef60405160405180910390a45050565b828054611d3b90612fb6565b90600052602060002090601f016020900481019282611d5d5760008555611da4565b82601f10611d7657805160ff1916838001178555611da4565b82800160010185558215611da4579182015b82811115611da3578251825591602001919060010190611d88565b5b509050611db19190611db5565b5090565b5b80821115611dce576000816000905550600101611db6565b5090565b6000611de5611de084612d48565b612d17565b905082815260208101848484011115611dfd57600080fd5b611e08848285612f74565b509392505050565b6000611e23611e1e84612d78565b612d17565b905082815260208101848484011115611e3b57600080fd5b611e46848285612f74565b509392505050565b600081359050611e5d8161312f565b92915050565b600081359050611e7281613146565b92915050565b600081359050611e878161315d565b92915050565b600081519050611e9c8161315d565b92915050565b600082601f830112611eb357600080fd5b8135611ec3848260208601611dd2565b91505092915050565b600082601f830112611edd57600080fd5b8135611eed848260208601611e10565b91505092915050565b600081359050611f0581613174565b92915050565b600060208284031215611f1d57600080fd5b6000611f2b84828501611e4e565b91505092915050565b60008060408385031215611f4757600080fd5b6000611f5585828601611e4e565b9250506020611f6685828601611e4e565b9150509250929050565b600080600060608486031215611f8557600080fd5b6000611f9386828701611e4e565b9350506020611fa486828701611e4e565b9250506040611fb586828701611ef6565b9150509250925092565b60008060008060808587031215611fd557600080fd5b6000611fe387828801611e4e565b9450506020611ff487828801611e4e565b935050604061200587828801611ef6565b925050606085013567ffffffffffffffff81111561202257600080fd5b61202e87828801611ea2565b91505092959194509250565b6000806040838503121561204d57600080fd5b600061205b85828601611e4e565b925050602061206c85828601611e63565b9150509250929050565b6000806040838503121561208957600080fd5b600061209785828601611e4e565b92505060206120a885828601611ef6565b9150509250929050565b6000602082840312156120c457600080fd5b60006120d284828501611e78565b91505092915050565b6000602082840312156120ed57600080fd5b60006120fb84828501611e8d565b91505092915050565b60006020828403121561211657600080fd5b600082013567ffffffffffffffff81111561213057600080fd5b61213c84828501611ecc565b91505092915050565b60006020828403121561215757600080fd5b600061216584828501611ef6565b91505092915050565b61217781612f00565b82525050565b61218681612f12565b82525050565b600061219782612da8565b6121a18185612dbe565b93506121b1818560208601612f83565b6121ba8161311e565b840191505092915050565b60006121d082612db3565b6121da8185612dcf565b93506121ea818560208601612f83565b6121f38161311e565b840191505092915050565b600061220982612db3565b6122138185612de0565b9350612223818560208601612f83565b80840191505092915050565b600061223c600983612de0565b91507f7b226e616d65223a2200000000000000000000000000000000000000000000006000830152600982019050919050565b600061227c603283612dcf565b91507f4552433732313a207472616e7366657220746f206e6f6e20455243373231526560008301527f63656976657220696d706c656d656e74657200000000000000000000000000006020830152604082019050919050565b60006122e2601c83612dcf565b91507f4552433732313a20746f6b656e20616c7265616479206d696e746564000000006000830152602082019050919050565b6000612322602483612dcf565b91507f4552433732313a207472616e7366657220746f20746865207a65726f2061646460008301527f72657373000000000000000000000000000000000000000000000000000000006020830152604082019050919050565b6000612388601983612dcf565b91507f4552433732313a20617070726f766520746f2063616c6c6572000000000000006000830152602082019050919050565b60006123c8602c83612dcf565b91507f4552433732313a206f70657261746f7220717565727920666f72206e6f6e657860008301527f697374656e7420746f6b656e00000000000000000000000000000000000000006020830152604082019050919050565b600061242e600783612de0565b91507f535647204e4654000000000000000000000000000000000000000000000000006000830152600782019050919050565b600061246e603883612dcf565b91507f4552433732313a20617070726f76652063616c6c6572206973206e6f74206f7760008301527f6e6572206e6f7220617070726f76656420666f7220616c6c00000000000000006020830152604082019050919050565b60006124d4602a83612dcf565b91507f4552433732313a2062616c616e636520717565727920666f7220746865207a6560008301527f726f2061646472657373000000000000000000000000000000000000000000006020830152604082019050919050565b600061253a602983612dcf565b91507f4552433732313a206f776e657220717565727920666f72206e6f6e657869737460008301527f656e7420746f6b656e00000000000000000000000000000000000000000000006020830152604082019050919050565b60006125a0602e83612dcf565b91507f45524337323155524953746f726167653a2055524920736574206f66206e6f6e60008301527f6578697374656e7420746f6b656e0000000000000000000000000000000000006020830152604082019050919050565b6000612606600283612de0565b91507f227d0000000000000000000000000000000000000000000000000000000000006000830152600282019050919050565b6000612646602083612dcf565b91507f4552433732313a206d696e7420746f20746865207a65726f20616464726573736000830152602082019050919050565b6000612686603183612dcf565b91507f45524337323155524953746f726167653a2055524920717565727920666f722060008301527f6e6f6e6578697374656e7420746f6b656e0000000000000000000000000000006020830152604082019050919050565b60006126ec602c83612dcf565b91507f4552433732313a20617070726f76656420717565727920666f72206e6f6e657860008301527f697374656e7420746f6b656e00000000000000000000000000000000000000006020830152604082019050919050565b6000612752602983612dcf565b91507f4552433732313a207472616e73666572206f6620746f6b656e2074686174206960008301527f73206e6f74206f776e00000000000000000000000000000000000000000000006020830152604082019050919050565b60006127b8602f83612dcf565b91507f4552433732314d657461646174613a2055524920717565727920666f72206e6f60008301527f6e6578697374656e7420746f6b656e00000000000000000000000000000000006020830152604082019050919050565b600061281e604383612de0565b91507f222c20226465736372697074696f6e223a22416e204e4654206261736564206f60008301527f6e2053564721222c202261747472696275746573223a22222c2022696d61676560208301527f223a2200000000000000000000000000000000000000000000000000000000006040830152604382019050919050565b60006128aa602183612dcf565b91507f4552433732313a20617070726f76616c20746f2063757272656e74206f776e6560008301527f72000000000000000000000000000000000000000000000000000000000000006020830152604082019050919050565b6000612910601d83612de0565b91507f646174613a6170706c69636174696f6e2f6a736f6e3b6261736536342c0000006000830152601d82019050919050565b6000612950603183612dcf565b91507f4552433732313a207472616e736665722063616c6c6572206973206e6f74206f60008301527f776e6572206e6f7220617070726f7665640000000000000000000000000000006020830152604082019050919050565b6129b281612f6a565b82525050565b60006129c482846121fe565b915081905092915050565b60006129db82856121fe565b91506129e782846121fe565b91508190509392505050565b60006129fe8261222f565b9150612a0982612421565b9150612a1482612811565b9150612a2082846121fe565b9150612a2b826125f9565b915081905092915050565b6000612a4182612903565b9150612a4d82846121fe565b915081905092915050565b6000602082019050612a6d600083018461216e565b92915050565b6000608082019050612a88600083018761216e565b612a95602083018661216e565b612aa260408301856129a9565b8181036060830152612ab4818461218c565b905095945050505050565b6000602082019050612ad4600083018461217d565b92915050565b60006020820190508181036000830152612af481846121c5565b905092915050565b60006020820190508181036000830152612b158161226f565b9050919050565b60006020820190508181036000830152612b35816122d5565b9050919050565b60006020820190508181036000830152612b5581612315565b9050919050565b60006020820190508181036000830152612b758161237b565b9050919050565b60006020820190508181036000830152612b95816123bb565b9050919050565b60006020820190508181036000830152612bb581612461565b9050919050565b60006020820190508181036000830152612bd5816124c7565b9050919050565b60006020820190508181036000830152612bf58161252d565b9050919050565b60006020820190508181036000830152612c1581612593565b9050919050565b60006020820190508181036000830152612c3581612639565b9050919050565b60006020820190508181036000830152612c5581612679565b9050919050565b60006020820190508181036000830152612c75816126df565b9050919050565b60006020820190508181036000830152612c9581612745565b9050919050565b60006020820190508181036000830152612cb5816127ab565b9050919050565b60006020820190508181036000830152612cd58161289d565b9050919050565b60006020820190508181036000830152612cf581612943565b9050919050565b6000602082019050612d1160008301846129a9565b92915050565b6000604051905081810181811067ffffffffffffffff82111715612d3e57612d3d6130ef565b5b8060405250919050565b600067ffffffffffffffff821115612d6357612d626130ef565b5b601f19601f8301169050602081019050919050565b600067ffffffffffffffff821115612d9357612d926130ef565b5b601f19601f8301169050602081019050919050565b600081519050919050565b600081519050919050565b600082825260208201905092915050565b600082825260208201905092915050565b600081905092915050565b6000612df682612f6a565b9150612e0183612f6a565b9250827fffffffffffffffffffffffffffffffffffffffffffffffffffffffffffffffff03821115612e3657612e35613062565b5b828201905092915050565b6000612e4c82612f6a565b9150612e5783612f6a565b925082612e6757612e66613091565b5b828204905092915050565b6000612e7d82612f6a565b9150612e8883612f6a565b9250817fffffffffffffffffffffffffffffffffffffffffffffffffffffffffffffffff0483118215151615612ec157612ec0613062565b5b828202905092915050565b6000612ed782612f6a565b9150612ee283612f6a565b925082821015612ef557612ef4613062565b5b828203905092915050565b6000612f0b82612f4a565b9050919050565b60008115159050919050565b60007fffffffff0000000000000000000000000000000000000000000000000000000082169050919050565b600073ffffffffffffffffffffffffffffffffffffffff82169050919050565b6000819050919050565b82818337600083830152505050565b60005b83811015612fa1578082015181840152602081019050612f86565b83811115612fb0576000848401525b50505050565b60006002820490506001821680612fce57607f821691505b60208210811415612fe257612fe16130c0565b5b50919050565b6000612ff382612f6a565b91507fffffffffffffffffffffffffffffffffffffffffffffffffffffffffffffffff82141561302657613025613062565b5b600182019050919050565b600061303c82612f6a565b915061304783612f6a565b92508261305757613056613091565b5b828206905092915050565b7f4e487b7100000000000000000000000000000000000000000000000000000000600052601160045260246000fd5b7f4e487b7100000000000000000000000000000000000000000000000000000000600052601260045260246000fd5b7f4e487b7100000000000000000000000000000000000000000000000000000000600052602260045260246000fd5b7f4e487b7100000000000000000000000000000000000000000000000000000000600052604160045260246000fd5b6000601f19601f8301169050919050565b61313881612f00565b811461314357600080fd5b50565b61314f81612f12565b811461315a57600080fd5b50565b61316681612f1e565b811461317157600080fd5b50565b61317d81612f6a565b811461318857600080fd5b5056fe4142434445464748494a4b4c4d4e4f505152535455565758595a6162636465666768696a6b6c6d6e6f707172737475767778797a303132333435363738392b2fa26469706673582212208bc6cc158a1ff264d5d868513610f564e52db876246383fdd33ce0833ffe835764736f6c63430008000033",
  "immutableReferences": {},
  "source": "//SPDX-License-Identifier: MIT\r\npragma solidity ^0.8.0;\r\n\r\n// give the contract some SVG code\r\n// output an NFT URI with this svg code\r\n// Storing all the nft metadata on chain\r\nimport \"@openzeppelin/contracts/token/ERC721/extensions/ERC721URIStorage.sol\";\r\nimport \"base64-sol/base64.sol\";\r\n\r\ncontract SVGNFT is ERC721URIStorage {\r\n\tuint256 public tokenCounter;\r\n\tevent CreatedSVGNFT(uint256 indexed tokenId, string tokenURI);\r\n\r\n\tconstructor() ERC721(\"SVG NFT\", \"svgNFT\") {\r\n\t\ttokenCounter = 0;\r\n\t}\r\n\r\n\tmapping(address => string) public uriOwner;\r\n\r\n\tfunction create(string memory _svg) public {\r\n\t\t\t_safeMint(msg.sender, tokenCounter);\r\n\t\t\t// imageUri?\r\n\t\t\tstring memory imageURI = svgToImageURI(_svg);\r\n\t\t\t// tokenUri?\r\n\t\t\tstring memory tokenURI = formatTokenURI(imageURI);\r\n\t\t\t_setTokenURI(tokenCounter, tokenURI);\r\n\t\t\temit CreatedSVGNFT(tokenCounter, tokenURI);\r\n\t\t\ttokenCounter++;\r\n\t}\r\n\r\n\tfunction svgToImageURI(string memory _svg) public pure returns (string memory){\r\n\t\t// <svg xmlns=\"http://www.w3.org/2000/svg\" height=\"210\" width=\"400\"> <path d=\"M150 0 L75 200 L225 200 Z\" /></svg>\r\n\t\t// data:image/svg+xml;base64,<Base64-encodingL>\r\n\t\t// create the base url\r\n\t\tstring memory baseURL = \"data:image/svg+xml;base64,\";\r\n\t\t// Encode it into Base64\r\n\t\tstring memory svgBase64Encoded = Base64.encode(bytes(string(abi.encodePacked(_svg))));\r\n\t\t// concat the base and encoded svg into image uri\r\n\t\tstring memory imageURI = string(abi.encodePacked(baseURL, svgBase64Encoded));\r\n\t\treturn imageURI;\r\n\t}\r\n\r\n\tfunction transferer(address _from, address _to, uint _tokenId) public {\r\n\t\t_safeTransfer(_from, _to, _tokenId, \"\");\r\n\t}\r\n\r\n\tfunction formatTokenURI(string memory _imageURI) public pure returns (string memory) {\r\n\t\treturn string(\r\n                abi.encodePacked(\"data:application/json;base64,\", Base64.encode(\r\n                        bytes(\r\n                            abi.encodePacked(\r\n                                '{\"name\":\"',\r\n                                \"SVG NFT\", // You can add whatever name here\r\n                                '\", \"description\":\"An NFT based on SVG!\", \"attributes\":\"\", \"image\":\"',_imageURI,'\"}'\r\n                    )))));\r\n\t}\r\n}\r\n",
  "sourcePath": "C:/Users/petari/Desktop/coding project folder/solidity/nft_build/contracts/SVGNFT.sol",
  "compiler": {
    "name": "solc",
    "version": "0.8.0+commit.c7dfd78e.Emscripten.clang"
  },
  "schemaVersion": "3.2.3",
  "updatedAt": "2021-12-12T15:19:49.689Z",
  "networkType": "ethereum",
  "devdoc": {
    "kind": "dev",
    "methods": {
      "approve(address,uint256)": {
        "details": "See {IERC721-approve}."
      },
      "balanceOf(address)": {
        "details": "See {IERC721-balanceOf}."
      },
      "getApproved(uint256)": {
        "details": "See {IERC721-getApproved}."
      },
      "isApprovedForAll(address,address)": {
        "details": "See {IERC721-isApprovedForAll}."
      },
      "name()": {
        "details": "See {IERC721Metadata-name}."
      },
      "ownerOf(uint256)": {
        "details": "See {IERC721-ownerOf}."
      },
      "safeTransferFrom(address,address,uint256)": {
        "details": "See {IERC721-safeTransferFrom}."
      },
      "safeTransferFrom(address,address,uint256,bytes)": {
        "details": "See {IERC721-safeTransferFrom}."
      },
      "setApprovalForAll(address,bool)": {
        "details": "See {IERC721-setApprovalForAll}."
      },
      "supportsInterface(bytes4)": {
        "details": "See {IERC165-supportsInterface}."
      },
      "symbol()": {
        "details": "See {IERC721Metadata-symbol}."
      },
      "tokenURI(uint256)": {
        "details": "See {IERC721Metadata-tokenURI}."
      },
      "transferFrom(address,address,uint256)": {
        "details": "See {IERC721-transferFrom}."
      }
    },
    "version": 1
  },
  "userdoc": {
    "kind": "user",
    "methods": {},
    "version": 1
  }
}